{
  "contractName": "Item",
  "abi": [
    {
      "inputs": [
        {
          "internalType": "contract Store",
          "name": "_storeContract",
          "type": "address"
        },
        {
          "internalType": "uint256",
          "name": "_itemId",
          "type": "uint256"
        },
        {
          "internalType": "uint256",
          "name": "_isoCurrency",
          "type": "uint256"
        },
        {
          "internalType": "string",
          "name": "_name",
          "type": "string"
        },
        {
          "internalType": "uint256",
          "name": "_price",
          "type": "uint256"
        }
      ],
      "stateMutability": "nonpayable",
      "type": "constructor"
    },
    {
      "inputs": [],
      "name": "itemInfo",
      "outputs": [
        {
          "internalType": "uint256",
          "name": "itemId",
          "type": "uint256"
        },
        {
          "internalType": "uint256",
          "name": "isoCurrency",
          "type": "uint256"
        },
        {
          "internalType": "string",
          "name": "name",
          "type": "string"
        },
        {
          "internalType": "uint256",
          "name": "lastPrice",
          "type": "uint256"
        },
        {
          "internalType": "uint256",
          "name": "numOfPriceChanges",
          "type": "uint256"
        }
      ],
      "stateMutability": "view",
      "type": "function"
    },
    {
      "inputs": [
        {
          "internalType": "uint256",
          "name": "",
          "type": "uint256"
        }
      ],
      "name": "prices",
      "outputs": [
        {
          "internalType": "uint256",
          "name": "amount",
          "type": "uint256"
        },
        {
          "internalType": "uint256",
          "name": "timestamp",
          "type": "uint256"
        },
        {
          "internalType": "address",
          "name": "updatedUser",
          "type": "address"
        }
      ],
      "stateMutability": "view",
      "type": "function"
    },
    {
      "inputs": [
        {
          "internalType": "uint256",
          "name": "_amount",
          "type": "uint256"
        },
        {
          "internalType": "address",
          "name": "_sender",
          "type": "address"
        }
      ],
      "name": "updatePrice",
      "outputs": [],
      "stateMutability": "nonpayable",
      "type": "function"
    },
    {
      "inputs": [],
      "name": "numberOfPriceChanges",
      "outputs": [
        {
          "internalType": "uint256",
          "name": "",
          "type": "uint256"
        }
      ],
      "stateMutability": "view",
      "type": "function"
    },
    {
      "inputs": [
        {
          "internalType": "uint256",
          "name": "_index",
          "type": "uint256"
        }
      ],
      "name": "getPriceAtIndex",
      "outputs": [
        {
          "internalType": "uint256",
          "name": "",
          "type": "uint256"
        },
        {
          "internalType": "uint256",
          "name": "",
          "type": "uint256"
        },
        {
          "internalType": "address",
          "name": "",
          "type": "address"
        }
      ],
      "stateMutability": "view",
      "type": "function"
    }
  ],
  "bytecode": "0x608060405234801561001057600080fd5b506040516109c83803806109c8833981810160405260a081101561003357600080fd5b810190808051906020019092919080519060200190929190805190602001909291908051604051939291908464010000000082111561007157600080fd5b8382019150602082018581111561008757600080fd5b82518660018202830111640100000000821117156100a457600080fd5b8083526020830192505050908051906020019080838360005b838110156100d85780820151818401526020810190506100bd565b50505050905090810190601f1680156101055780820380516001836020036101000a031916815260200191505b506040526020018051906020019092919050505084600660006101000a81548173ffffffffffffffffffffffffffffffffffffffff021916908373ffffffffffffffffffffffffffffffffffffffff16021790555083600080018190555082600060010181905550816000600201908051906020019061018692919061025b565b5061019781336101a160201b60201c565b50505050506102f8565b816005600080600401548152602001908152602001600020600001819055504260056000806004015481526020019081526020016000206001018190555080600560008060040154815260200190815260200160002060020160006101000a81548173ffffffffffffffffffffffffffffffffffffffff021916908373ffffffffffffffffffffffffffffffffffffffff160217905550816000600301819055506000600401600081548092919060010191905055505050565b828054600181600116156101000203166002900490600052602060002090601f016020900481019282601f1061029c57805160ff19168380011785556102ca565b828001600101855582156102ca579182015b828111156102c95782518255916020019190600101906102ae565b5b5090506102d791906102db565b5090565b5b808211156102f45760008160009055506001016102dc565b5090565b6106c1806103076000396000f3fe608060405234801561001057600080fd5b50600436106100575760003560e01c80637b12291a1461005c578063a706bf141461007a578063bc31c1c114610119578063c8104e011461017f578063e9ffaadb146101e5575b600080fd5b610064610233565b6040518082815260200191505060405180910390f35b61008261023f565b6040518086815260200185815260200180602001848152602001838152602001828103825285818151815260200191508051906020019080838360005b838110156100da5780820151818401526020810190506100bf565b50505050905090810190601f1680156101075780820380516001836020036101000a031916815260200191505b50965050505050505060405180910390f35b6101456004803603602081101561012f57600080fd5b81019080803590602001909291905050506102fb565b604051808481526020018381526020018273ffffffffffffffffffffffffffffffffffffffff168152602001935050505060405180910390f35b6101ab6004803603602081101561019557600080fd5b8101908080359060200190929190505050610345565b604051808481526020018381526020018273ffffffffffffffffffffffffffffffffffffffff168152602001935050505060405180910390f35b610231600480360360408110156101fb57600080fd5b8101908080359060200190929190803573ffffffffffffffffffffffffffffffffffffffff169060200190929190505050610418565b005b60008060040154905090565b6000806000015490806001015490806002018054600181600116156101000203166002900480601f0160208091040260200160405190810160405280929190818152602001828054600181600116156101000203166002900480156102e55780601f106102ba576101008083540402835291602001916102e5565b820191906000526020600020905b8154815290600101906020018083116102c857829003601f168201915b5050505050908060030154908060040154905085565b60056020528060005260406000206000915090508060000154908060010154908060020160009054906101000a900473ffffffffffffffffffffffffffffffffffffffff16905083565b6000806000806004015484106103a6576040517f08c379a000000000000000000000000000000000000000000000000000000000815260040180806020018281038252602d8152602001806105fc602d913960400191505060405180910390fd5b600560008581526020019081526020016000206000015460056000868152602001908152602001600020600101546005600087815260200190815260200160002060020160009054906101000a900473ffffffffffffffffffffffffffffffffffffffff169250925092509193909250565b80600660009054906101000a900473ffffffffffffffffffffffffffffffffffffffff1673ffffffffffffffffffffffffffffffffffffffff166324d7806c826040518263ffffffff1660e01b8152600401808273ffffffffffffffffffffffffffffffffffffffff16815260200191505060206040518083038186803b1580156104a257600080fd5b505afa1580156104b6573d6000803e3d6000fd5b505050506040513d60208110156104cc57600080fd5b8101908080519060200190929190505050610532576040517f08c379a00000000000000000000000000000000000000000000000000000000081526004018080602001828103825260638152602001806106296063913960800191505060405180910390fd5b61053c8383610541565b505050565b816005600080600401548152602001908152602001600020600001819055504260056000806004015481526020019081526020016000206001018190555080600560008060040154815260200190815260200160002060020160006101000a81548173ffffffffffffffffffffffffffffffffffffffff021916908373ffffffffffffffffffffffffffffffffffffffff16021790555081600060030181905550600060040160008154809291906001019190505550505056fe5468657265206973206e6f20707269636520656e74727920776974682073706563696669656420696e6465782e596f7520617265206e6f7420616c6c6f77656420746f2075706461746520746865207072696365206f6620746865206974656d21204f6e6c792061646d696e73206f66207468652073746f72652063616e207570646174652074686520707269636521a2646970667358221220907ab09eecf5b2070fd017186f07b6afc0727b37f3e7eae6dec2d906d741865c64736f6c634300060c0033",
  "immutableReferences": {},
  "source": "// SPDX-License-Identifier: GPL-3.0\r\n\r\npragma solidity >=0.6.0 <0.8.0;\r\n\r\nimport \"./Store.sol\";\r\n\r\n\r\n/**\r\n * @title Item\r\n * @dev Item contract for storing item related information.\r\n */\r\ncontract Item {\r\n\r\n    struct Price {\r\n        uint256 amount;  //price of the item\r\n        uint256 timestamp; //time and date when price was changed\r\n        address updatedUser; //user who updated the price\r\n    }\r\n    \r\n    struct ItemInfo {\r\n        uint256 itemId;\r\n        uint256 isoCurrency;\r\n        string name;\r\n        uint256 lastPrice;\r\n        uint256 numOfPriceChanges;\r\n    }\r\n\r\n    ItemInfo public itemInfo;\r\n    mapping(uint256 => Price) public prices;\r\n    Store parentContract;\r\n    \r\n    /**\r\n     * @dev Modifier that allows only admins of a store to update a price for an item under that store.\r\n     * @param _address address of a user that is trying to update the price.\r\n     */\r\n    modifier onlyStoreAdmin(address _address){\r\n        require(parentContract.isAdmin(_address), \"You are not allowed to update the price of the item! Only admins of the store can update the price!\");\r\n        _;\r\n    }\r\n    \r\n    /** \r\n     * @dev Create a new ballot to choose one of 'proposalNames'.\r\n     * @param _itemId unique identifier of the item  \r\n     * @param _isoCurrency currency that will be used for a price of the item (ISO-4127)\r\n     * @param _name name of the item\r\n     */\r\n    constructor(Store _storeContract, uint256 _itemId, uint256 _isoCurrency, string memory _name, uint _price) public {\r\n        parentContract = _storeContract;\r\n        itemInfo.itemId = _itemId;\r\n        itemInfo.isoCurrency = _isoCurrency;\r\n        itemInfo.name = _name;\r\n        _addNewPrice(_price, msg.sender);\r\n    }\r\n    \r\n    /**\r\n     * @dev Adds new price entry for the item.\r\n     * @param _amount new price for the item\r\n     */\r\n    function _addNewPrice(uint256 _amount, address _sender) internal {\r\n        prices[itemInfo.numOfPriceChanges].amount = _amount;\r\n        prices[itemInfo.numOfPriceChanges].timestamp = block.timestamp;\r\n        prices[itemInfo.numOfPriceChanges].updatedUser = _sender;\r\n        itemInfo.lastPrice = _amount;\r\n        itemInfo.numOfPriceChanges++;\r\n    }\r\n    \r\n    /**\r\n     * @dev Update the price of the item.\r\n     * @param _amount new price for the item\r\n     */\r\n    function updatePrice(uint256 _amount, address _sender) onlyStoreAdmin(_sender) external {\r\n        _addNewPrice(_amount, _sender);\r\n    }\r\n    \r\n    /**\r\n     * @dev Number of price changes for this item (number of Price records).\r\n     */\r\n    function numberOfPriceChanges() public view returns(uint256) {\r\n        return itemInfo.numOfPriceChanges;\r\n    }\r\n    \r\n    \r\n    /**\r\n     * @dev Returns the price record (unpacked into a tuple) at selected index.\r\n     * @param _index of the price record\r\n     */\r\n    function getPriceAtIndex(uint256 _index) public view returns(uint256, uint256, address) {\r\n        require(_index < itemInfo.numOfPriceChanges, \"There is no price entry with specified index.\");\r\n        return (prices[_index].amount, prices[_index].timestamp, prices[_index].updatedUser);\r\n    }\r\n   \r\n}",
  "sourcePath": "C:\\Users\\DJKrivi\\Desktop\\Master\\Master teza\\Implementacija\\contracts\\Item.sol",
  "compiler": {
    "name": "solc",
    "version": "0.6.12+commit.27d51765.Emscripten.clang"
  },
  "schemaVersion": "3.2.3",
  "updatedAt": "2021-08-12T20:22:24.609Z",
  "devdoc": {
    "details": "Item contract for storing item related information.",
    "kind": "dev",
    "methods": {
      "constructor": {
        "details": "Create a new ballot to choose one of 'proposalNames'.",
        "params": {
          "_isoCurrency": "currency that will be used for a price of the item (ISO-4127)",
          "_itemId": "unique identifier of the item  ",
          "_name": "name of the item"
        }
      },
      "getPriceAtIndex(uint256)": {
        "details": "Returns the price record (unpacked into a tuple) at selected index.",
        "params": {
          "_index": "of the price record"
        }
      },
      "numberOfPriceChanges()": {
        "details": "Number of price changes for this item (number of Price records)."
      },
      "updatePrice(uint256,address)": {
        "details": "Update the price of the item.",
        "params": {
          "_amount": "new price for the item"
        }
      }
    },
    "title": "Item",
    "version": 1
  },
  "userdoc": {
    "kind": "user",
    "methods": {},
    "version": 1
  }
}