{
  "contractName": "StoreManager",
  "abi": [
    {
      "anonymous": false,
      "inputs": [
        {
          "indexed": true,
          "internalType": "address",
          "name": "previousOwner",
          "type": "address"
        },
        {
          "indexed": true,
          "internalType": "address",
          "name": "newOwner",
          "type": "address"
        }
      ],
      "name": "OwnershipTransferred",
      "type": "event"
    },
    {
      "inputs": [],
      "name": "numOfStores",
      "outputs": [
        {
          "internalType": "uint256",
          "name": "",
          "type": "uint256"
        }
      ],
      "stateMutability": "view",
      "type": "function",
      "constant": true
    },
    {
      "inputs": [],
      "name": "owner",
      "outputs": [
        {
          "internalType": "address",
          "name": "",
          "type": "address"
        }
      ],
      "stateMutability": "view",
      "type": "function",
      "constant": true
    },
    {
      "inputs": [],
      "name": "renounceOwnership",
      "outputs": [],
      "stateMutability": "nonpayable",
      "type": "function"
    },
    {
      "inputs": [
        {
          "internalType": "address",
          "name": "",
          "type": "address"
        }
      ],
      "name": "storeAddressMapping",
      "outputs": [
        {
          "internalType": "contract Store",
          "name": "",
          "type": "address"
        }
      ],
      "stateMutability": "view",
      "type": "function",
      "constant": true
    },
    {
      "inputs": [
        {
          "internalType": "uint256",
          "name": "",
          "type": "uint256"
        }
      ],
      "name": "storeIdMapping",
      "outputs": [
        {
          "internalType": "contract Store",
          "name": "",
          "type": "address"
        }
      ],
      "stateMutability": "view",
      "type": "function",
      "constant": true
    },
    {
      "inputs": [
        {
          "internalType": "address",
          "name": "newOwner",
          "type": "address"
        }
      ],
      "name": "transferOwnership",
      "outputs": [],
      "stateMutability": "nonpayable",
      "type": "function"
    },
    {
      "inputs": [
        {
          "internalType": "string",
          "name": "_name",
          "type": "string"
        },
        {
          "internalType": "address",
          "name": "_admin",
          "type": "address"
        }
      ],
      "name": "createNewStore",
      "outputs": [],
      "stateMutability": "nonpayable",
      "type": "function"
    },
    {
      "inputs": [
        {
          "internalType": "uint256",
          "name": "_storeId",
          "type": "uint256"
        }
      ],
      "name": "getStoreInfoById",
      "outputs": [
        {
          "internalType": "uint256",
          "name": "",
          "type": "uint256"
        },
        {
          "internalType": "string",
          "name": "",
          "type": "string"
        },
        {
          "internalType": "uint256",
          "name": "",
          "type": "uint256"
        }
      ],
      "stateMutability": "view",
      "type": "function",
      "constant": true
    },
    {
      "inputs": [],
      "name": "getMyStoreInfo",
      "outputs": [
        {
          "internalType": "uint256",
          "name": "",
          "type": "uint256"
        },
        {
          "internalType": "string",
          "name": "",
          "type": "string"
        },
        {
          "internalType": "uint256",
          "name": "",
          "type": "uint256"
        }
      ],
      "stateMutability": "view",
      "type": "function",
      "constant": true
    },
    {
      "inputs": [
        {
          "internalType": "address",
          "name": "_address",
          "type": "address"
        }
      ],
      "name": "addAdminToMyStore",
      "outputs": [],
      "stateMutability": "nonpayable",
      "type": "function"
    },
    {
      "inputs": [
        {
          "internalType": "address",
          "name": "_address",
          "type": "address"
        }
      ],
      "name": "removeAdminFromMyStore",
      "outputs": [],
      "stateMutability": "nonpayable",
      "type": "function"
    },
    {
      "inputs": [
        {
          "internalType": "uint256",
          "name": "_storeId",
          "type": "uint256"
        },
        {
          "internalType": "address",
          "name": "_address",
          "type": "address"
        }
      ],
      "name": "isStoreAdmin",
      "outputs": [
        {
          "internalType": "bool",
          "name": "",
          "type": "bool"
        }
      ],
      "stateMutability": "view",
      "type": "function",
      "constant": true
    },
    {
      "inputs": [
        {
          "internalType": "uint256",
          "name": "_storeId",
          "type": "uint256"
        },
        {
          "internalType": "uint256",
          "name": "_itemId",
          "type": "uint256"
        }
      ],
      "name": "getItemInfo",
      "outputs": [
        {
          "internalType": "uint256",
          "name": "",
          "type": "uint256"
        },
        {
          "internalType": "uint256",
          "name": "",
          "type": "uint256"
        },
        {
          "internalType": "string",
          "name": "",
          "type": "string"
        },
        {
          "internalType": "uint256",
          "name": "",
          "type": "uint256"
        },
        {
          "internalType": "uint256",
          "name": "",
          "type": "uint256"
        }
      ],
      "stateMutability": "view",
      "type": "function",
      "constant": true
    },
    {
      "inputs": [
        {
          "internalType": "uint256",
          "name": "_storeId",
          "type": "uint256"
        },
        {
          "internalType": "uint256",
          "name": "_itemId",
          "type": "uint256"
        },
        {
          "internalType": "uint256",
          "name": "_index",
          "type": "uint256"
        }
      ],
      "name": "getPriceForItemAtIndex",
      "outputs": [
        {
          "internalType": "uint256",
          "name": "",
          "type": "uint256"
        },
        {
          "internalType": "uint256",
          "name": "",
          "type": "uint256"
        },
        {
          "internalType": "address",
          "name": "",
          "type": "address"
        }
      ],
      "stateMutability": "view",
      "type": "function",
      "constant": true
    },
    {
      "inputs": [
        {
          "internalType": "uint256",
          "name": "_isoCurrency",
          "type": "uint256"
        },
        {
          "internalType": "string",
          "name": "_name",
          "type": "string"
        },
        {
          "internalType": "uint256",
          "name": "_price",
          "type": "uint256"
        }
      ],
      "name": "addNewItemToMyStore",
      "outputs": [],
      "stateMutability": "nonpayable",
      "type": "function"
    },
    {
      "inputs": [
        {
          "internalType": "uint256",
          "name": "_itemId",
          "type": "uint256"
        },
        {
          "internalType": "uint256",
          "name": "_amount",
          "type": "uint256"
        }
      ],
      "name": "updateItemPrice",
      "outputs": [],
      "stateMutability": "nonpayable",
      "type": "function"
    }
  ],
  "bytecode": "0x608060405234801561001057600080fd5b5060006100216100c460201b60201c565b9050806000806101000a81548173ffffffffffffffffffffffffffffffffffffffff021916908373ffffffffffffffffffffffffffffffffffffffff1602179055508073ffffffffffffffffffffffffffffffffffffffff16600073ffffffffffffffffffffffffffffffffffffffff167f8be0079c531659141344cd1fd0a4f28419497f9722a3daafe3b4186f6b6457e060405160405180910390a3506100cc565b600033905090565b614ba8806100db6000396000f3fe60806040523480156200001157600080fd5b5060043610620001185760003560e01c80639998c29d11620000a5578063e1b7e93a116200006f578063e1b7e93a14620006b5578063ecdd693814620006d5578063f2fde38b146200073c578063fa8e8d3a14620007835762000118565b80639998c29d1462000429578063a7c81db31462000484578063a86ca5111462000557578063ac1d4ff514620006385762000118565b8063715018a611620000e7578063715018a6146200032f57806372af1676146200033b5780638d4c611814620003825780638da5cb5b14620003f35762000118565b80632769b96b146200011d57806331855263146200015857806339a13696146200019f57806346b4fff71462000274575b600080fd5b62000156600480360360408110156200013557600080fd5b81019080803590602001909291908035906020019092919050505062000819565b005b6200019d600480360360208110156200017057600080fd5b81019080803573ffffffffffffffffffffffffffffffffffffffff169060200190929190505050620009f6565b005b6200027260048036036060811015620001b757600080fd5b810190808035906020019092919080359060200190640100000000811115620001df57600080fd5b820183602082011115620001f257600080fd5b803590602001918460018302840111640100000000831117156200021557600080fd5b91908080601f016020809104026020016040519081016040528093929190818152602001838380828437600081840152601f19601f8201169050808301925050505050505091929192908035906020019092919050505062000be0565b005b620002a3600480360360208110156200028c57600080fd5b810190808035906020019092919050505062000e2e565b6040518084815260200180602001838152602001828103825284818151815260200191508051906020019080838360005b83811015620002f1578082015181840152602081019050620002d4565b50505050905090810190601f1680156200031f5780820380516001836020036101000a031916815260200191505b5094505050505060405180910390f35b620003396200102f565b005b62000380600480360360208110156200035357600080fd5b81019080803573ffffffffffffffffffffffffffffffffffffffff169060200190929190505050620011a1565b005b620003c7600480360360208110156200039a57600080fd5b81019080803573ffffffffffffffffffffffffffffffffffffffff16906020019092919050505062001468565b604051808273ffffffffffffffffffffffffffffffffffffffff16815260200191505060405180910390f35b620003fd6200149b565b604051808273ffffffffffffffffffffffffffffffffffffffff16815260200191505060405180910390f35b62000458600480360360208110156200044157600080fd5b8101908080359060200190929190505050620014c4565b604051808273ffffffffffffffffffffffffffffffffffffffff16815260200191505060405180910390f35b620004bd600480360360408110156200049c57600080fd5b810190808035906020019092919080359060200190929190505050620014f7565b6040518086815260200185815260200180602001848152602001838152602001828103825285818151815260200191508051906020019080838360005b8381101562000517578082015181840152602081019050620004fa565b50505050905090810190601f168015620005455780820380516001836020036101000a031916815260200191505b50965050505050505060405180910390f35b62000636600480360360408110156200056f57600080fd5b81019080803590602001906401000000008111156200058d57600080fd5b820183602082011115620005a057600080fd5b80359060200191846001830284011164010000000083111715620005c357600080fd5b91908080601f016020809104026020016040519081016040528093929190818152602001838380828437600081840152601f19601f820116905080830192505050505050509192919290803573ffffffffffffffffffffffffffffffffffffffff16906020019092919050505062001720565b005b6200067b600480360360608110156200065057600080fd5b8101908080359060200190929190803590602001909291908035906020019092919050505062001a6e565b604051808481526020018381526020018273ffffffffffffffffffffffffffffffffffffffff168152602001935050505060405180910390f35b620006bf62001bbc565b6040518082815260200191505060405180910390f35b6200072460048036036040811015620006ed57600080fd5b8101908080359060200190929190803573ffffffffffffffffffffffffffffffffffffffff16906020019092919050505062001bc2565b60405180821515815260200191505060405180910390f35b62000781600480360360208110156200075457600080fd5b81019080803573ffffffffffffffffffffffffffffffffffffffff16906020019092919050505062001d00565b005b6200078d62001ef9565b6040518084815260200180602001838152602001828103825284818151815260200191508051906020019080838360005b83811015620007db578082015181840152602081019050620007be565b50505050905090810190601f168015620008095780820380516001836020036101000a031916815260200191505b5094505050505060405180910390f35b600073ffffffffffffffffffffffffffffffffffffffff16600260003373ffffffffffffffffffffffffffffffffffffffff1673ffffffffffffffffffffffffffffffffffffffff16815260200190815260200160002060009054906101000a900473ffffffffffffffffffffffffffffffffffffffff1673ffffffffffffffffffffffffffffffffffffffff16141562000900576040517f08c379a000000000000000000000000000000000000000000000000000000000815260040180806020018281038252602981526020018062004aac6029913960400191505060405180910390fd5b600260003373ffffffffffffffffffffffffffffffffffffffff1673ffffffffffffffffffffffffffffffffffffffff16815260200190815260200160002060009054906101000a900473ffffffffffffffffffffffffffffffffffffffff1673ffffffffffffffffffffffffffffffffffffffff16633cd499743384846040518463ffffffff1660e01b8152600401808473ffffffffffffffffffffffffffffffffffffffff1681526020018381526020018281526020019350505050600060405180830381600087803b158015620009d957600080fd5b505af1158015620009ee573d6000803e3d6000fd5b505050505050565b600073ffffffffffffffffffffffffffffffffffffffff16600260003373ffffffffffffffffffffffffffffffffffffffff1673ffffffffffffffffffffffffffffffffffffffff16815260200190815260200160002060009054906101000a900473ffffffffffffffffffffffffffffffffffffffff1673ffffffffffffffffffffffffffffffffffffffff16141562000add576040517f08c379a000000000000000000000000000000000000000000000000000000000815260040180806020018281038252602981526020018062004aac6029913960400191505060405180910390fd5b600260003373ffffffffffffffffffffffffffffffffffffffff1673ffffffffffffffffffffffffffffffffffffffff16815260200190815260200160002060009054906101000a900473ffffffffffffffffffffffffffffffffffffffff1673ffffffffffffffffffffffffffffffffffffffff1663268959e533836040518363ffffffff1660e01b8152600401808373ffffffffffffffffffffffffffffffffffffffff1681526020018273ffffffffffffffffffffffffffffffffffffffff16815260200192505050600060405180830381600087803b15801562000bc457600080fd5b505af115801562000bd9573d6000803e3d6000fd5b5050505050565b600073ffffffffffffffffffffffffffffffffffffffff16600260003373ffffffffffffffffffffffffffffffffffffffff1673ffffffffffffffffffffffffffffffffffffffff16815260200190815260200160002060009054906101000a900473ffffffffffffffffffffffffffffffffffffffff1673ffffffffffffffffffffffffffffffffffffffff16141562000cc7576040517f08c379a000000000000000000000000000000000000000000000000000000000815260040180806020018281038252602981526020018062004aac6029913960400191505060405180910390fd5b600260003373ffffffffffffffffffffffffffffffffffffffff1673ffffffffffffffffffffffffffffffffffffffff16815260200190815260200160002060009054906101000a900473ffffffffffffffffffffffffffffffffffffffff1673ffffffffffffffffffffffffffffffffffffffff16638d0c27c9338585856040518563ffffffff1660e01b8152600401808573ffffffffffffffffffffffffffffffffffffffff16815260200184815260200180602001838152602001828103825284818151815260200191508051906020019080838360005b8381101562000dbf57808201518184015260208101905062000da2565b50505050905090810190601f16801562000ded5780820380516001836020036101000a031916815260200191505b5095505050505050600060405180830381600087803b15801562000e1057600080fd5b505af115801562000e25573d6000803e3d6000fd5b50505050505050565b600060606000600354841062000e90576040517f08c379a000000000000000000000000000000000000000000000000000000000815260040180806020018281038252602681526020018062004b4d6026913960400191505060405180910390fd5b6001600085815260200190815260200160002060009054906101000a900473ffffffffffffffffffffffffffffffffffffffff1673ffffffffffffffffffffffffffffffffffffffff16637343bfc66040518163ffffffff1660e01b815260040160006040518083038186803b15801562000f0a57600080fd5b505afa15801562000f1f573d6000803e3d6000fd5b505050506040513d6000823e3d601f19601f82011682018060405250606081101562000f4a57600080fd5b81019080805190602001909291908051604051939291908464010000000082111562000f7557600080fd5b8382019150602082018581111562000f8c57600080fd5b825186600182028301116401000000008211171562000faa57600080fd5b8083526020830192505050908051906020019080838360005b8381101562000fe057808201518184015260208101905062000fc3565b50505050905090810190601f1680156200100e5780820380516001836020036101000a031916815260200191505b50604052602001805190602001909291905050509250925092509193909250565b62001039620021ae565b73ffffffffffffffffffffffffffffffffffffffff16620010596200149b565b73ffffffffffffffffffffffffffffffffffffffff1614620010e3576040517f08c379a00000000000000000000000000000000000000000000000000000000081526004018080602001828103825260208152602001807f4f776e61626c653a2063616c6c6572206973206e6f7420746865206f776e657281525060200191505060405180910390fd5b600073ffffffffffffffffffffffffffffffffffffffff1660008054906101000a900473ffffffffffffffffffffffffffffffffffffffff1673ffffffffffffffffffffffffffffffffffffffff167f8be0079c531659141344cd1fd0a4f28419497f9722a3daafe3b4186f6b6457e060405160405180910390a360008060006101000a81548173ffffffffffffffffffffffffffffffffffffffff021916908373ffffffffffffffffffffffffffffffffffffffff160217905550565b600073ffffffffffffffffffffffffffffffffffffffff16600260003373ffffffffffffffffffffffffffffffffffffffff1673ffffffffffffffffffffffffffffffffffffffff16815260200190815260200160002060009054906101000a900473ffffffffffffffffffffffffffffffffffffffff1673ffffffffffffffffffffffffffffffffffffffff16141562001288576040517f08c379a000000000000000000000000000000000000000000000000000000000815260040180806020018281038252602981526020018062004aac6029913960400191505060405180910390fd5b600260003373ffffffffffffffffffffffffffffffffffffffff1673ffffffffffffffffffffffffffffffffffffffff16815260200190815260200160002060009054906101000a900473ffffffffffffffffffffffffffffffffffffffff1673ffffffffffffffffffffffffffffffffffffffff16638a19b4d233836040518363ffffffff1660e01b8152600401808373ffffffffffffffffffffffffffffffffffffffff1681526020018273ffffffffffffffffffffffffffffffffffffffff16815260200192505050600060405180830381600087803b1580156200136f57600080fd5b505af115801562001384573d6000803e3d6000fd5b50505050600260003373ffffffffffffffffffffffffffffffffffffffff1673ffffffffffffffffffffffffffffffffffffffff16815260200190815260200160002060009054906101000a900473ffffffffffffffffffffffffffffffffffffffff16600260008373ffffffffffffffffffffffffffffffffffffffff1673ffffffffffffffffffffffffffffffffffffffff16815260200190815260200160002060006101000a81548173ffffffffffffffffffffffffffffffffffffffff021916908373ffffffffffffffffffffffffffffffffffffffff16021790555050565b60026020528060005260406000206000915054906101000a900473ffffffffffffffffffffffffffffffffffffffff1681565b60008060009054906101000a900473ffffffffffffffffffffffffffffffffffffffff16905090565b60016020528060005260406000206000915054906101000a900473ffffffffffffffffffffffffffffffffffffffff1681565b600080606060008060035487106200155b576040517f08c379a000000000000000000000000000000000000000000000000000000000815260040180806020018281038252602681526020018062004b4d6026913960400191505060405180910390fd5b6001600088815260200190815260200160002060009054906101000a900473ffffffffffffffffffffffffffffffffffffffff1673ffffffffffffffffffffffffffffffffffffffff1663de7fe3e7876040518263ffffffff1660e01b81526004018082815260200191505060006040518083038186803b158015620015e057600080fd5b505afa158015620015f5573d6000803e3d6000fd5b505050506040513d6000823e3d601f19601f8201168201806040525060a08110156200162057600080fd5b810190808051906020019092919080519060200190929190805160405193929190846401000000008211156200165557600080fd5b838201915060208201858111156200166c57600080fd5b82518660018202830111640100000000821117156200168a57600080fd5b8083526020830192505050908051906020019080838360005b83811015620016c0578082015181840152602081019050620016a3565b50505050905090810190601f168015620016ee5780820380516001836020036101000a031916815260200191505b506040526020018051906020019092919080519060200190929190505050945094509450945094509295509295909350565b6200172a620021ae565b73ffffffffffffffffffffffffffffffffffffffff166200174a6200149b565b73ffffffffffffffffffffffffffffffffffffffff1614620017d4576040517f08c379a00000000000000000000000000000000000000000000000000000000081526004018080602001828103825260208152602001807f4f776e61626c653a2063616c6c6572206973206e6f7420746865206f776e657281525060200191505060405180910390fd5b600073ffffffffffffffffffffffffffffffffffffffff16600260008373ffffffffffffffffffffffffffffffffffffffff1673ffffffffffffffffffffffffffffffffffffffff16815260200190815260200160002060009054906101000a900473ffffffffffffffffffffffffffffffffffffffff1673ffffffffffffffffffffffffffffffffffffffff1614620018ba576040517f08c379a000000000000000000000000000000000000000000000000000000000815260040180806020018281038252605281526020018062004ad56052913960600191505060405180910390fd5b60006003548383604051620018cf90620021b6565b80848152602001806020018373ffffffffffffffffffffffffffffffffffffffff168152602001828103825284818151815260200191508051906020019080838360005b838110156200193057808201518184015260208101905062001913565b50505050905090810190601f1680156200195e5780820380516001836020036101000a031916815260200191505b50945050505050604051809103906000f08015801562001982573d6000803e3d6000fd5b5090508060016000600354815260200190815260200160002060006101000a81548173ffffffffffffffffffffffffffffffffffffffff021916908373ffffffffffffffffffffffffffffffffffffffff16021790555080600260008473ffffffffffffffffffffffffffffffffffffffff1673ffffffffffffffffffffffffffffffffffffffff16815260200190815260200160002060006101000a81548173ffffffffffffffffffffffffffffffffffffffff021916908373ffffffffffffffffffffffffffffffffffffffff160217905550600360008154809291906001019190505550505050565b6000806000600354861062001acf576040517f08c379a000000000000000000000000000000000000000000000000000000000815260040180806020018281038252602681526020018062004b4d6026913960400191505060405180910390fd5b6001600087815260200190815260200160002060009054906101000a900473ffffffffffffffffffffffffffffffffffffffff1673ffffffffffffffffffffffffffffffffffffffff1663d054fa1d86866040518363ffffffff1660e01b8152600401808381526020018281526020019250505060606040518083038186803b15801562001b5c57600080fd5b505afa15801562001b71573d6000803e3d6000fd5b505050506040513d606081101562001b8857600080fd5b8101908080519060200190929190805190602001909291908051906020019092919050505092509250925093509350939050565b60035481565b6000600354831062001c20576040517f08c379a000000000000000000000000000000000000000000000000000000000815260040180806020018281038252602681526020018062004b4d6026913960400191505060405180910390fd5b6001600084815260200190815260200160002060009054906101000a900473ffffffffffffffffffffffffffffffffffffffff1673ffffffffffffffffffffffffffffffffffffffff166324d7806c836040518263ffffffff1660e01b8152600401808273ffffffffffffffffffffffffffffffffffffffff16815260200191505060206040518083038186803b15801562001cbb57600080fd5b505afa15801562001cd0573d6000803e3d6000fd5b505050506040513d602081101562001ce757600080fd5b8101908080519060200190929190505050905092915050565b62001d0a620021ae565b73ffffffffffffffffffffffffffffffffffffffff1662001d2a6200149b565b73ffffffffffffffffffffffffffffffffffffffff161462001db4576040517f08c379a00000000000000000000000000000000000000000000000000000000081526004018080602001828103825260208152602001807f4f776e61626c653a2063616c6c6572206973206e6f7420746865206f776e657281525060200191505060405180910390fd5b600073ffffffffffffffffffffffffffffffffffffffff168173ffffffffffffffffffffffffffffffffffffffff16141562001e3c576040517f08c379a000000000000000000000000000000000000000000000000000000000815260040180806020018281038252602681526020018062004b276026913960400191505060405180910390fd5b8073ffffffffffffffffffffffffffffffffffffffff1660008054906101000a900473ffffffffffffffffffffffffffffffffffffffff1673ffffffffffffffffffffffffffffffffffffffff167f8be0079c531659141344cd1fd0a4f28419497f9722a3daafe3b4186f6b6457e060405160405180910390a3806000806101000a81548173ffffffffffffffffffffffffffffffffffffffff021916908373ffffffffffffffffffffffffffffffffffffffff16021790555050565b6000606060008073ffffffffffffffffffffffffffffffffffffffff16600260003373ffffffffffffffffffffffffffffffffffffffff1673ffffffffffffffffffffffffffffffffffffffff16815260200190815260200160002060009054906101000a900473ffffffffffffffffffffffffffffffffffffffff1673ffffffffffffffffffffffffffffffffffffffff16141562001fe5576040517f08c379a000000000000000000000000000000000000000000000000000000000815260040180806020018281038252602981526020018062004aac6029913960400191505060405180910390fd5b600260003373ffffffffffffffffffffffffffffffffffffffff1673ffffffffffffffffffffffffffffffffffffffff16815260200190815260200160002060009054906101000a900473ffffffffffffffffffffffffffffffffffffffff1673ffffffffffffffffffffffffffffffffffffffff16637343bfc66040518163ffffffff1660e01b815260040160006040518083038186803b1580156200208b57600080fd5b505afa158015620020a0573d6000803e3d6000fd5b505050506040513d6000823e3d601f19601f820116820180604052506060811015620020cb57600080fd5b810190808051906020019092919080516040519392919084640100000000821115620020f657600080fd5b838201915060208201858111156200210d57600080fd5b82518660018202830111640100000000821117156200212b57600080fd5b8083526020830192505050908051906020019080838360005b838110156200216157808201518184015260208101905062002144565b50505050905090810190601f1680156200218f5780820380516001836020036101000a031916815260200191505b5060405260200180519060200190929190505050925092509250909192565b600033905090565b6128e780620021c58339019056fe60806040523480156200001157600080fd5b50604051620028e7380380620028e7833981810160405260608110156200003757600080fd5b8101908080519060200190929190805160405193929190846401000000008211156200006257600080fd5b838201915060208201858111156200007957600080fd5b82518660018202830111640100000000821117156200009757600080fd5b8083526020830192505050908051906020019080838360005b83811015620000cd578082015181840152602081019050620000b0565b50505050905090810190601f168015620000fb5780820380516001836020036101000a031916815260200191505b50604052602001805190602001909291905050508260016000018190555081600180019080519060200190620001339291906200031a565b50620001496000801b826200018460201b60201c565b6200017b7fa49807205ce4d355092ef5a8a18f56e8913cf4a201fbe287825b095693c21775826200018460201b60201c565b505050620003c0565b6200019682826200019a60201b60201c565b5050565b620001c8816000808581526020019081526020016000206000016200023d60201b620015dd1790919060201c565b156200023957620001de6200027560201b60201c565b73ffffffffffffffffffffffffffffffffffffffff168173ffffffffffffffffffffffffffffffffffffffff16837f2f8788117e7eff1d82e926ec794901d17c78024a50270940304540a733656f0d60405160405180910390a45b5050565b60006200026d836000018373ffffffffffffffffffffffffffffffffffffffff1660001b6200027d60201b60201c565b905092915050565b600033905090565b6000620002918383620002f760201b60201c565b620002ec578260000182908060018154018082558091505060019003906000526020600020016000909190919091505582600001805490508360010160008481526020019081526020016000208190555060019050620002f1565b600090505b92915050565b600080836001016000848152602001908152602001600020541415905092915050565b828054600181600116156101000203166002900490600052602060002090601f016020900481019282601f106200035d57805160ff19168380011785556200038e565b828001600101855582156200038e579182015b828111156200038d57825182559160200191906001019062000370565b5b5090506200039d9190620003a1565b5090565b5b80821115620003bc576000816000905550600101620003a2565b5090565b61251780620003d06000396000f3fe60806040523480156200001157600080fd5b50600436106200013c5760003560e01c80638d0c27c911620000bd578063bfb231d2116200007b578063bfb231d2146200068a578063ca15c87314620006e5578063d054fa1d146200072a578063d547741f146200079d578063de7fe3e714620007ee576200013c565b80638d0c27c914620004645780639010d07c146200055957806391d1485414620005be578063a217fddf1462000625578063a66a59d81462000645576200013c565b806336568abe116200010b57806336568abe146200029b5780633cd4997414620002ec5780637343bfc6146200034757806375b238fc14620003dd5780638a19b4d214620003fd576200013c565b8063248a9ca3146200014157806324d7806c1462000186578063268959e514620001e35780632f2ff15d146200024a575b600080fd5b62000170600480360360208110156200015957600080fd5b8101908080359060200190929190505050620008b7565b6040518082815260200191505060405180910390f35b620001cb600480360360208110156200019e57600080fd5b81019080803573ffffffffffffffffffffffffffffffffffffffff169060200190929190505050620008d6565b60405180821515815260200191505060405180910390f35b6200024860048036036040811015620001fb57600080fd5b81019080803573ffffffffffffffffffffffffffffffffffffffff169060200190929190803573ffffffffffffffffffffffffffffffffffffffff1690602001909291905050506200090b565b005b62000299600480360360408110156200026257600080fd5b8101908080359060200190929190803573ffffffffffffffffffffffffffffffffffffffff169060200190929190505050620009c0565b005b620002ea60048036036040811015620002b357600080fd5b8101908080359060200190929190803573ffffffffffffffffffffffffffffffffffffffff16906020019092919050505062000a51565b005b62000345600480360360608110156200030457600080fd5b81019080803573ffffffffffffffffffffffffffffffffffffffff169060200190929190803590602001909291908035906020019092919050505062000af0565b005b6200035162000c98565b6040518084815260200180602001838152602001828103825284818151815260200191508051906020019080838360005b838110156200039f57808201518184015260208101905062000382565b50505050905090810190601f168015620003cd5780820380516001836020036101000a031916815260200191505b5094505050505060405180910390f35b620003e762000d4c565b6040518082815260200191505060405180910390f35b62000462600480360360408110156200041557600080fd5b81019080803573ffffffffffffffffffffffffffffffffffffffff169060200190929190803573ffffffffffffffffffffffffffffffffffffffff16906020019092919050505062000d70565b005b62000557600480360360808110156200047c57600080fd5b81019080803573ffffffffffffffffffffffffffffffffffffffff1690602001909291908035906020019092919080359060200190640100000000811115620004c457600080fd5b820183602082011115620004d757600080fd5b80359060200191846001830284011164010000000083111715620004fa57600080fd5b91908080601f016020809104026020016040519081016040528093929190818152602001838380828437600081840152601f19601f8201169050808301925050505050505091929192908035906020019092919050505062000e25565b005b62000592600480360360408110156200057157600080fd5b81019080803590602001909291908035906020019092919050505062000ffb565b604051808273ffffffffffffffffffffffffffffffffffffffff16815260200191505060405180910390f35b6200060d60048036036040811015620005d657600080fd5b8101908080359060200190929190803573ffffffffffffffffffffffffffffffffffffffff1690602001909291905050506200102e565b60405180821515815260200191505060405180910390f35b6200062f62001061565b6040518082815260200191505060405180910390f35b62000674600480360360208110156200065d57600080fd5b810190808035906020019092919050505062001068565b6040518082815260200191505060405180910390f35b620006b960048036036020811015620006a257600080fd5b810190808035906020019092919050505062001188565b604051808273ffffffffffffffffffffffffffffffffffffffff16815260200191505060405180910390f35b6200071460048036036020811015620006fd57600080fd5b8101908080359060200190929190505050620011bb565b6040518082815260200191505060405180910390f35b62000763600480360360408110156200074257600080fd5b810190808035906020019092919080359060200190929190505050620011e3565b604051808481526020018381526020018273ffffffffffffffffffffffffffffffffffffffff168152602001935050505060405180910390f35b620007ec60048036036040811015620007b557600080fd5b8101908080359060200190929190803573ffffffffffffffffffffffffffffffffffffffff1690602001909291905050506200132b565b005b6200081d600480360360208110156200080657600080fd5b8101908080359060200190929190505050620013bc565b6040518086815260200185815260200180602001848152602001838152602001828103825285818151815260200191508051906020019080838360005b83811015620008775780820151818401526020810190506200085a565b50505050905090810190601f168015620008a55780820380516001836020036101000a031916815260200191505b50965050505050505060405180910390f35b6000806000838152602001908152602001600020600201549050919050565b6000620009047fa49807205ce4d355092ef5a8a18f56e8913cf4a201fbe287825b095693c21775836200102e565b9050919050565b81620009387fa49807205ce4d355092ef5a8a18f56e8913cf4a201fbe287825b095693c21775826200102e565b6200098f576040517f08c379a0000000000000000000000000000000000000000000000000000000008152600401808060200182810382526021815260200180620024616021913960400191505060405180910390fd5b620009bb7fa49807205ce4d355092ef5a8a18f56e8913cf4a201fbe287825b095693c21775836200132b565b505050565b620009ea60008084815260200190815260200160002060020154620009e46200160f565b6200102e565b62000a41576040517f08c379a000000000000000000000000000000000000000000000000000000000815260040180806020018281038252602f81526020018062002402602f913960400191505060405180910390fd5b62000a4d828262001617565b5050565b62000a5b6200160f565b73ffffffffffffffffffffffffffffffffffffffff168173ffffffffffffffffffffffffffffffffffffffff161462000ae0576040517f08c379a000000000000000000000000000000000000000000000000000000000815260040180806020018281038252602f815260200180620024b3602f913960400191505060405180910390fd5b62000aec8282620016af565b5050565b8262000b1d7fa49807205ce4d355092ef5a8a18f56e8913cf4a201fbe287825b095693c21775826200102e565b62000b74576040517f08c379a0000000000000000000000000000000000000000000000000000000008152600401808060200182810382526021815260200180620024616021913960400191505060405180910390fd5b60016002015483111562000bd4576040517f08c379a0000000000000000000000000000000000000000000000000000000008152600401808060200182810382526031815260200180620024826031913960400191505060405180910390fd5b6004600084815260200190815260200160002060009054906101000a900473ffffffffffffffffffffffffffffffffffffffff1673ffffffffffffffffffffffffffffffffffffffff1663e9ffaadb83866040518363ffffffff1660e01b8152600401808381526020018273ffffffffffffffffffffffffffffffffffffffff16815260200192505050600060405180830381600087803b15801562000c7957600080fd5b505af115801562000c8e573d6000803e3d6000fd5b5050505050505050565b6001806000015490806001018054600181600116156101000203166002900480601f01602080910402602001604051908101604052809291908181526020018280546001816001161561010002031660029004801562000d3c5780601f1062000d105761010080835404028352916020019162000d3c565b820191906000526020600020905b81548152906001019060200180831162000d1e57829003601f168201915b5050505050908060020154905083565b7fa49807205ce4d355092ef5a8a18f56e8913cf4a201fbe287825b095693c2177581565b8162000d9d7fa49807205ce4d355092ef5a8a18f56e8913cf4a201fbe287825b095693c21775826200102e565b62000df4576040517f08c379a0000000000000000000000000000000000000000000000000000000008152600401808060200182810382526021815260200180620024616021913960400191505060405180910390fd5b62000e207fa49807205ce4d355092ef5a8a18f56e8913cf4a201fbe287825b095693c217758362001747565b505050565b8362000e527fa49807205ce4d355092ef5a8a18f56e8913cf4a201fbe287825b095693c21775826200102e565b62000ea9576040517f08c379a0000000000000000000000000000000000000000000000000000000008152600401808060200182810382526021815260200180620024616021913960400191505060405180910390fd5b60003060016002015486868660405162000ec39062001a09565b808673ffffffffffffffffffffffffffffffffffffffff16815260200185815260200184815260200180602001838152602001828103825284818151815260200191508051906020019080838360005b8381101562000f3057808201518184015260208101905062000f13565b50505050905090810190601f16801562000f5e5780820380516001836020036101000a031916815260200191505b509650505050505050604051809103906000f08015801562000f84573d6000803e3d6000fd5b5090508060046000600160020154815260200190815260200160002060006101000a81548173ffffffffffffffffffffffffffffffffffffffff021916908373ffffffffffffffffffffffffffffffffffffffff160217905550600160020160008154809291906001019190505550505050505050565b600062001026826000808681526020019081526020016000206000016200175790919063ffffffff16565b905092915050565b600062001059826000808681526020019081526020016000206000016200177390919063ffffffff16565b905092915050565b6000801b81565b6000600160020154821115620010ca576040517f08c379a0000000000000000000000000000000000000000000000000000000008152600401808060200182810382526031815260200180620024826031913960400191505060405180910390fd5b6004600083815260200190815260200160002060009054906101000a900473ffffffffffffffffffffffffffffffffffffffff1673ffffffffffffffffffffffffffffffffffffffff16637b12291a6040518163ffffffff1660e01b815260040160206040518083038186803b1580156200114457600080fd5b505afa15801562001159573d6000803e3d6000fd5b505050506040513d60208110156200117057600080fd5b81019080805190602001909291905050509050919050565b60046020528060005260406000206000915054906101000a900473ffffffffffffffffffffffffffffffffffffffff1681565b6000620011dc600080848152602001908152602001600020600001620017a5565b9050919050565b600080600060016002015485111562001248576040517f08c379a0000000000000000000000000000000000000000000000000000000008152600401808060200182810382526031815260200180620024826031913960400191505060405180910390fd5b6004600086815260200190815260200160002060009054906101000a900473ffffffffffffffffffffffffffffffffffffffff1673ffffffffffffffffffffffffffffffffffffffff1663c8104e01856040518263ffffffff1660e01b81526004018082815260200191505060606040518083038186803b158015620012cd57600080fd5b505afa158015620012e2573d6000803e3d6000fd5b505050506040513d6060811015620012f957600080fd5b810190808051906020019092919080519060200190929190805190602001909291905050509250925092509250925092565b62001355600080848152602001908152602001600020600201546200134f6200160f565b6200102e565b620013ac576040517f08c379a0000000000000000000000000000000000000000000000000000000008152600401808060200182810382526030815260200180620024316030913960400191505060405180910390fd5b620013b88282620016af565b5050565b600080606060008060016002015486111562001424576040517f08c379a0000000000000000000000000000000000000000000000000000000008152600401808060200182810382526031815260200180620024826031913960400191505060405180910390fd5b6004600087815260200190815260200160002060009054906101000a900473ffffffffffffffffffffffffffffffffffffffff1673ffffffffffffffffffffffffffffffffffffffff1663a706bf146040518163ffffffff1660e01b815260040160006040518083038186803b1580156200149e57600080fd5b505afa158015620014b3573d6000803e3d6000fd5b505050506040513d6000823e3d601f19601f8201168201806040525060a0811015620014de57600080fd5b810190808051906020019092919080519060200190929190805160405193929190846401000000008211156200151357600080fd5b838201915060208201858111156200152a57600080fd5b82518660018202830111640100000000821117156200154857600080fd5b8083526020830192505050908051906020019080838360005b838110156200157e57808201518184015260208101905062001561565b50505050905090810190601f168015620015ac5780820380516001836020036101000a031916815260200191505b5060405260200180519060200190929190805190602001909291905050509450945094509450945091939590929450565b600062001607836000018373ffffffffffffffffffffffffffffffffffffffff1660001b620017bc565b905092915050565b600033905090565b6200164081600080858152602001908152602001600020600001620015dd90919063ffffffff16565b15620016ab57620016506200160f565b73ffffffffffffffffffffffffffffffffffffffff168173ffffffffffffffffffffffffffffffffffffffff16837f2f8788117e7eff1d82e926ec794901d17c78024a50270940304540a733656f0d60405160405180910390a45b5050565b620016d8816000808581526020019081526020016000206000016200183090919063ffffffff16565b156200174357620016e86200160f565b73ffffffffffffffffffffffffffffffffffffffff168173ffffffffffffffffffffffffffffffffffffffff16837ff6391f5c32d9c69d2a47ea670b442974b53935d1edc7fd64eb21e047a839171b60405160405180910390a45b5050565b62001753828262001617565b5050565b600062001768836000018362001862565b60001c905092915050565b60006200179d836000018373ffffffffffffffffffffffffffffffffffffffff1660001b620018e8565b905092915050565b6000620017b5826000016200190b565b9050919050565b6000620017ca8383620018e8565b620018255782600001829080600181540180825580915050600190039060005260206000200160009091909190915055826000018054905083600101600084815260200190815260200160002081905550600190506200182a565b600090505b92915050565b60006200185a836000018373ffffffffffffffffffffffffffffffffffffffff1660001b6200191c565b905092915050565b600081836000018054905011620018c5576040517f08c379a0000000000000000000000000000000000000000000000000000000008152600401808060200182810382526022815260200180620023e06022913960400191505060405180910390fd5b826000018281548110620018d557fe5b9060005260206000200154905092915050565b600080836001016000848152602001908152602001600020541415905092915050565b600081600001805490509050919050565b60008083600101600084815260200190815260200160002054905060008114620019fd57600060018203905060006001866000018054905003905060008660000182815481106200196957fe5b90600052602060002001549050808760000184815481106200198757fe5b9060005260206000200181905550600183018760010160008381526020019081526020016000208190555086600001805480620019c057fe5b6001900381819060005260206000200160009055905586600101600087815260200190815260200160002060009055600194505050505062001a03565b60009150505b92915050565b6109c88062001a188339019056fe608060405234801561001057600080fd5b506040516109c83803806109c8833981810160405260a081101561003357600080fd5b810190808051906020019092919080519060200190929190805190602001909291908051604051939291908464010000000082111561007157600080fd5b8382019150602082018581111561008757600080fd5b82518660018202830111640100000000821117156100a457600080fd5b8083526020830192505050908051906020019080838360005b838110156100d85780820151818401526020810190506100bd565b50505050905090810190601f1680156101055780820380516001836020036101000a031916815260200191505b506040526020018051906020019092919050505084600660006101000a81548173ffffffffffffffffffffffffffffffffffffffff021916908373ffffffffffffffffffffffffffffffffffffffff16021790555083600080018190555082600060010181905550816000600201908051906020019061018692919061025b565b5061019781336101a160201b60201c565b50505050506102f8565b816005600080600401548152602001908152602001600020600001819055504260056000806004015481526020019081526020016000206001018190555080600560008060040154815260200190815260200160002060020160006101000a81548173ffffffffffffffffffffffffffffffffffffffff021916908373ffffffffffffffffffffffffffffffffffffffff160217905550816000600301819055506000600401600081548092919060010191905055505050565b828054600181600116156101000203166002900490600052602060002090601f016020900481019282601f1061029c57805160ff19168380011785556102ca565b828001600101855582156102ca579182015b828111156102c95782518255916020019190600101906102ae565b5b5090506102d791906102db565b5090565b5b808211156102f45760008160009055506001016102dc565b5090565b6106c1806103076000396000f3fe608060405234801561001057600080fd5b50600436106100575760003560e01c80637b12291a1461005c578063a706bf141461007a578063bc31c1c114610119578063c8104e011461017f578063e9ffaadb146101e5575b600080fd5b610064610233565b6040518082815260200191505060405180910390f35b61008261023f565b6040518086815260200185815260200180602001848152602001838152602001828103825285818151815260200191508051906020019080838360005b838110156100da5780820151818401526020810190506100bf565b50505050905090810190601f1680156101075780820380516001836020036101000a031916815260200191505b50965050505050505060405180910390f35b6101456004803603602081101561012f57600080fd5b81019080803590602001909291905050506102fb565b604051808481526020018381526020018273ffffffffffffffffffffffffffffffffffffffff168152602001935050505060405180910390f35b6101ab6004803603602081101561019557600080fd5b8101908080359060200190929190505050610345565b604051808481526020018381526020018273ffffffffffffffffffffffffffffffffffffffff168152602001935050505060405180910390f35b610231600480360360408110156101fb57600080fd5b8101908080359060200190929190803573ffffffffffffffffffffffffffffffffffffffff169060200190929190505050610418565b005b60008060040154905090565b6000806000015490806001015490806002018054600181600116156101000203166002900480601f0160208091040260200160405190810160405280929190818152602001828054600181600116156101000203166002900480156102e55780601f106102ba576101008083540402835291602001916102e5565b820191906000526020600020905b8154815290600101906020018083116102c857829003601f168201915b5050505050908060030154908060040154905085565b60056020528060005260406000206000915090508060000154908060010154908060020160009054906101000a900473ffffffffffffffffffffffffffffffffffffffff16905083565b6000806000806004015484106103a6576040517f08c379a000000000000000000000000000000000000000000000000000000000815260040180806020018281038252602d8152602001806105fc602d913960400191505060405180910390fd5b600560008581526020019081526020016000206000015460056000868152602001908152602001600020600101546005600087815260200190815260200160002060020160009054906101000a900473ffffffffffffffffffffffffffffffffffffffff169250925092509193909250565b80600660009054906101000a900473ffffffffffffffffffffffffffffffffffffffff1673ffffffffffffffffffffffffffffffffffffffff166324d7806c826040518263ffffffff1660e01b8152600401808273ffffffffffffffffffffffffffffffffffffffff16815260200191505060206040518083038186803b1580156104a257600080fd5b505afa1580156104b6573d6000803e3d6000fd5b505050506040513d60208110156104cc57600080fd5b8101908080519060200190929190505050610532576040517f08c379a00000000000000000000000000000000000000000000000000000000081526004018080602001828103825260638152602001806106296063913960800191505060405180910390fd5b61053c8383610541565b505050565b816005600080600401548152602001908152602001600020600001819055504260056000806004015481526020019081526020016000206001018190555080600560008060040154815260200190815260200160002060020160006101000a81548173ffffffffffffffffffffffffffffffffffffffff021916908373ffffffffffffffffffffffffffffffffffffffff16021790555081600060030181905550600060040160008154809291906001019190505550505056fe5468657265206973206e6f20707269636520656e74727920776974682073706563696669656420696e6465782e596f7520617265206e6f7420616c6c6f77656420746f2075706461746520746865207072696365206f6620746865206974656d21204f6e6c792061646d696e73206f66207468652073746f72652063616e207570646174652074686520707269636521a2646970667358221220907ab09eecf5b2070fd017186f07b6afc0727b37f3e7eae6dec2d906d741865c64736f6c634300060c0033456e756d657261626c655365743a20696e646578206f7574206f6620626f756e6473416363657373436f6e74726f6c3a2073656e646572206d75737420626520616e2061646d696e20746f206772616e74416363657373436f6e74726f6c3a2073656e646572206d75737420626520616e2061646d696e20746f207265766f6b6543616c6c6572206973206e6f7420616e2061646d696e206f6620612073746f72654974656d20776974682070726f766964656420696420646f65736e277420657869737420696e20746869732073746f7265416363657373436f6e74726f6c3a2063616e206f6e6c792072656e6f756e636520726f6c657320666f722073656c66a264697066735822122080cb25572f0f41b9063372b9dd0b1f67165e58aa68b43356df70c50c55606f0564736f6c634300060c0033596f7520646f6e2774206861766520616e792073746f72652061737369676e656420746f20796f7521596f7520616c72656164792068617665206372656174656420612073746f72652120506c656173652063616c6c206765744d7953746f7265496e666f206d6574686f6420666f72206d6f726520696e666f2e4f776e61626c653a206e6577206f776e657220697320746865207a65726f206164647265737353746f726520776974682073706563696669656420696420646f65736e277420657869737421a26469706673582212203882aadcf3548125e315361b2705c348c9dd2715d8c746a553f738a7f4c0958b64736f6c634300060c0033",
  "immutableReferences": {},
  "source": "// SPDX-License-Identifier: GPL-3.0\r\n\r\npragma solidity >=0.6.0 <0.8.0;\r\n\r\nimport \"./Store.sol\";\r\nimport \"@openzeppelin/contracts/access/Ownable.sol\";\r\n\r\n\r\n/**\r\n * @title StoreManager\r\n * @dev StoreManager contract for managing stores, items and prices. One address could be managining only one store.\r\n */\r\ncontract StoreManager is Ownable {\r\n    \r\n    mapping(uint256 => Store) public storeIdMapping;\r\n    mapping(address => Store) public storeAddressMapping;\r\n    uint256 public numOfStores;\r\n\r\n    /**\r\n     * @dev Creates new store (only one store per account is allowed)\r\n     * @param _name name of the store\r\n     * @param _admin address of the store admin\r\n     */\r\n    function createNewStore(string memory _name, address _admin) onlyOwner public {\r\n        require(address(storeAddressMapping[_admin]) == address(0), \"You already have created a store! Please call getMyStoreInfo method for more info.\");\r\n        Store store = new Store(numOfStores, _name, _admin);\r\n        storeIdMapping[numOfStores] = store;\r\n        storeAddressMapping[_admin] = store;\r\n        numOfStores++;\r\n    }\r\n    \r\n    /**\r\n     * @dev Returns basic information for selected store\r\n     * @param _storeId name of the store\r\n     * @return returns tuple(storeId, name, numberOfItems)\r\n     */\r\n    function getStoreInfoById(uint256 _storeId) public view returns(uint256, string memory, uint256) {\r\n        require(_storeId < numOfStores, \"Store with specified id doesn't exist!\");\r\n        return storeIdMapping[_storeId].storeInfo();\r\n    }\r\n    \r\n    /**\r\n     * @dev Returns basic information for the store where sender is admin\r\n     * @return tuple(storeId, name, numberOfItems)\r\n     */\r\n    function getMyStoreInfo() public view returns(uint256, string memory, uint256) {\r\n        require(address(storeAddressMapping[msg.sender]) != address(0), \"You don't have any store assigned to you!\");\r\n        return storeAddressMapping[msg.sender].storeInfo();\r\n    }\r\n    \r\n    /**\r\n     * @dev Grants specified address the admin rights for the store\r\n     * @param _address user that will have admin rights\r\n     */\r\n    function addAdminToMyStore(address _address) public {\r\n        require(address(storeAddressMapping[msg.sender]) != address(0), \"You don't have any store assigned to you!\");\r\n        storeAddressMapping[msg.sender].addAdmin(msg.sender, _address);\r\n        storeAddressMapping[_address] = storeAddressMapping[msg.sender];\r\n    }\r\n    \r\n    /**\r\n     * @dev Revokes admin rights for the store for the specified address \r\n     * @param _address user that will have admin rights removed\r\n     */\r\n    function removeAdminFromMyStore(address _address) public {\r\n        require(address(storeAddressMapping[msg.sender]) != address(0), \"You don't have any store assigned to you!\");\r\n        storeAddressMapping[msg.sender].removeAdmin(msg.sender, _address);\r\n    }\r\n    \r\n    /**\r\n     * @dev Checks if the specified address has admin rights for the store  \r\n     * @param _storeId identifier for the store entry\r\n     * @param _address of the user\r\n     */\r\n    function isStoreAdmin(uint256 _storeId, address _address) public view returns(bool) {\r\n        require(_storeId < numOfStores, \"Store with specified id doesn't exist!\");\r\n        return storeIdMapping[_storeId].isAdmin(_address);\r\n    }\r\n    \r\n    /**\r\n     * @dev Returns the basic information for the selected item in the store \r\n     * @param _storeId identifier for the store entry\r\n     * @param _itemId identifier of the item in the store\r\n     * @return tuple(itemId, isoCurrency, name, lastPrice, numberOfPriceChanges)\r\n     */\r\n    function getItemInfo(uint256 _storeId, uint256 _itemId) public view returns(uint256, uint256, string memory, uint256, uint256) {\r\n        require(_storeId < numOfStores, \"Store with specified id doesn't exist!\");\r\n        return storeIdMapping[_storeId].getItemInfo(_itemId);\r\n    }\r\n    \r\n    /**\r\n     * @dev Returns the selected price entry for the item in the store \r\n     * @param _storeId identifier for the store entry\r\n     * @param _itemId identifier of the item in the store\r\n     * @param _index price index\r\n     * @return tuple(amount, unixTimestamp, updatedUser)\r\n     */\r\n    function getPriceForItemAtIndex(uint256 _storeId, uint256 _itemId, uint256 _index) public view returns(uint256, uint256, address){\r\n        require(_storeId < numOfStores, \"Store with specified id doesn't exist!\");\r\n        return storeIdMapping[_storeId].getPriceForItemAtIndex(_itemId, _index);\r\n    }\r\n    \r\n    /**\r\n     * @dev Creates new item and adds it to the store \r\n     * @param _isoCurrency currency identifier according to the ISO-4127 standard\r\n     * @param _name name of the item\r\n     * @param _price price of the item\r\n     */\r\n    function addNewItemToMyStore(uint256 _isoCurrency, string memory _name, uint _price) public {\r\n        require(address(storeAddressMapping[msg.sender]) != address(0), \"You don't have any store assigned to you!\");\r\n        storeAddressMapping[msg.sender].createNewItem(msg.sender, _isoCurrency, _name, _price);\r\n    }\r\n    \r\n    /**\r\n     * @dev Updates the price of the item under sender's store \r\n     * @param _itemId identifier of the item whose price will be updated\r\n     * @param _amount new price for the item\r\n     */\r\n    function updateItemPrice(uint256 _itemId, uint256 _amount) public {\r\n        require(address(storeAddressMapping[msg.sender]) != address(0), \"You don't have any store assigned to you!\");\r\n        storeAddressMapping[msg.sender].updateItemPrice(msg.sender, _itemId, _amount);\r\n    }\r\n    \r\n   \r\n}",
  "sourcePath": "C:/Users/DJKrivi/Desktop/Master/Master teza/Implementacija/contracts/StoreManager.sol",
  "compiler": {
    "name": "solc",
    "version": "0.6.12+commit.27d51765.Emscripten.clang"
  },
  "schemaVersion": "3.2.3",
  "updatedAt": "2021-02-18T15:22:28.088Z",
  "networkType": "ethereum",
  "devdoc": {
    "details": "StoreManager contract for managing stores, items and prices. One address could be managining only one store.",
    "kind": "dev",
    "methods": {
      "addAdminToMyStore(address)": {
        "details": "Grants specified address the admin rights for the store",
        "params": {
          "_address": "user that will have admin rights"
        }
      },
      "addNewItemToMyStore(uint256,string,uint256)": {
        "details": "Creates new item and adds it to the store ",
        "params": {
          "_isoCurrency": "currency identifier according to the ISO-4127 standard",
          "_name": "name of the item",
          "_price": "price of the item"
        }
      },
      "createNewStore(string,address)": {
        "details": "Creates new store (only one store per account is allowed)",
        "params": {
          "_admin": "address of the store admin",
          "_name": "name of the store"
        }
      },
      "getItemInfo(uint256,uint256)": {
        "details": "Returns the basic information for the selected item in the store ",
        "params": {
          "_itemId": "identifier of the item in the store",
          "_storeId": "identifier for the store entry"
        },
        "returns": {
          "_0": "tuple(itemId, isoCurrency, name, lastPrice, numberOfPriceChanges)"
        }
      },
      "getMyStoreInfo()": {
        "details": "Returns basic information for the store where sender is admin",
        "returns": {
          "_0": "tuple(storeId, name, numberOfItems)"
        }
      },
      "getPriceForItemAtIndex(uint256,uint256,uint256)": {
        "details": "Returns the selected price entry for the item in the store ",
        "params": {
          "_index": "price index",
          "_itemId": "identifier of the item in the store",
          "_storeId": "identifier for the store entry"
        },
        "returns": {
          "_0": "tuple(amount, unixTimestamp, updatedUser)"
        }
      },
      "getStoreInfoById(uint256)": {
        "details": "Returns basic information for selected store",
        "params": {
          "_storeId": "name of the store"
        },
        "returns": {
          "_0": "returns tuple(storeId, name, numberOfItems)"
        }
      },
      "isStoreAdmin(uint256,address)": {
        "details": "Checks if the specified address has admin rights for the store  ",
        "params": {
          "_address": "of the user",
          "_storeId": "identifier for the store entry"
        }
      },
      "owner()": {
        "details": "Returns the address of the current owner."
      },
      "removeAdminFromMyStore(address)": {
        "details": "Revokes admin rights for the store for the specified address ",
        "params": {
          "_address": "user that will have admin rights removed"
        }
      },
      "renounceOwnership()": {
        "details": "Leaves the contract without owner. It will not be possible to call `onlyOwner` functions anymore. Can only be called by the current owner. NOTE: Renouncing ownership will leave the contract without an owner, thereby removing any functionality that is only available to the owner."
      },
      "transferOwnership(address)": {
        "details": "Transfers ownership of the contract to a new account (`newOwner`). Can only be called by the current owner."
      },
      "updateItemPrice(uint256,uint256)": {
        "details": "Updates the price of the item under sender's store ",
        "params": {
          "_amount": "new price for the item",
          "_itemId": "identifier of the item whose price will be updated"
        }
      }
    },
    "title": "StoreManager",
    "version": 1
  },
  "userdoc": {
    "kind": "user",
    "methods": {},
    "version": 1
  }
}