{
  "contractName": "StoreManager",
  "abi": [
    {
      "anonymous": false,
      "inputs": [
        {
          "indexed": true,
          "internalType": "address",
          "name": "previousOwner",
          "type": "address"
        },
        {
          "indexed": true,
          "internalType": "address",
          "name": "newOwner",
          "type": "address"
        }
      ],
      "name": "OwnershipTransferred",
      "type": "event"
    },
    {
      "inputs": [],
      "name": "numOfStores",
      "outputs": [
        {
          "internalType": "uint256",
          "name": "",
          "type": "uint256"
        }
      ],
      "stateMutability": "view",
      "type": "function",
      "constant": true
    },
    {
      "inputs": [],
      "name": "owner",
      "outputs": [
        {
          "internalType": "address",
          "name": "",
          "type": "address"
        }
      ],
      "stateMutability": "view",
      "type": "function",
      "constant": true
    },
    {
      "inputs": [],
      "name": "renounceOwnership",
      "outputs": [],
      "stateMutability": "nonpayable",
      "type": "function"
    },
    {
      "inputs": [
        {
          "internalType": "address",
          "name": "",
          "type": "address"
        }
      ],
      "name": "storeAddressMapping",
      "outputs": [
        {
          "internalType": "contract Store",
          "name": "",
          "type": "address"
        }
      ],
      "stateMutability": "view",
      "type": "function",
      "constant": true
    },
    {
      "inputs": [
        {
          "internalType": "uint256",
          "name": "",
          "type": "uint256"
        }
      ],
      "name": "storeIdMapping",
      "outputs": [
        {
          "internalType": "contract Store",
          "name": "",
          "type": "address"
        }
      ],
      "stateMutability": "view",
      "type": "function",
      "constant": true
    },
    {
      "inputs": [
        {
          "internalType": "address",
          "name": "newOwner",
          "type": "address"
        }
      ],
      "name": "transferOwnership",
      "outputs": [],
      "stateMutability": "nonpayable",
      "type": "function"
    },
    {
      "inputs": [
        {
          "internalType": "string",
          "name": "_name",
          "type": "string"
        },
        {
          "internalType": "address",
          "name": "_admin",
          "type": "address"
        }
      ],
      "name": "createNewStore",
      "outputs": [],
      "stateMutability": "nonpayable",
      "type": "function"
    },
    {
      "inputs": [
        {
          "internalType": "uint256",
          "name": "_storeId",
          "type": "uint256"
        }
      ],
      "name": "getStoreInfoById",
      "outputs": [
        {
          "internalType": "uint256",
          "name": "",
          "type": "uint256"
        },
        {
          "internalType": "string",
          "name": "",
          "type": "string"
        },
        {
          "internalType": "uint256",
          "name": "",
          "type": "uint256"
        }
      ],
      "stateMutability": "view",
      "type": "function",
      "constant": true
    },
    {
      "inputs": [],
      "name": "getMyStoreInfo",
      "outputs": [
        {
          "internalType": "uint256",
          "name": "",
          "type": "uint256"
        },
        {
          "internalType": "string",
          "name": "",
          "type": "string"
        },
        {
          "internalType": "uint256",
          "name": "",
          "type": "uint256"
        }
      ],
      "stateMutability": "view",
      "type": "function",
      "constant": true
    },
    {
      "inputs": [
        {
          "internalType": "address",
          "name": "_address",
          "type": "address"
        }
      ],
      "name": "addAdminToMyStore",
      "outputs": [],
      "stateMutability": "nonpayable",
      "type": "function"
    },
    {
      "inputs": [
        {
          "internalType": "address",
          "name": "_address",
          "type": "address"
        }
      ],
      "name": "removeAdminFromMyStore",
      "outputs": [],
      "stateMutability": "nonpayable",
      "type": "function"
    },
    {
      "inputs": [
        {
          "internalType": "uint256",
          "name": "_storeId",
          "type": "uint256"
        },
        {
          "internalType": "address",
          "name": "_address",
          "type": "address"
        }
      ],
      "name": "isStoreAdmin",
      "outputs": [
        {
          "internalType": "bool",
          "name": "",
          "type": "bool"
        }
      ],
      "stateMutability": "view",
      "type": "function",
      "constant": true
    },
    {
      "inputs": [
        {
          "internalType": "uint256",
          "name": "_storeId",
          "type": "uint256"
        },
        {
          "internalType": "uint256",
          "name": "_itemId",
          "type": "uint256"
        }
      ],
      "name": "getItemInfo",
      "outputs": [
        {
          "internalType": "uint256",
          "name": "",
          "type": "uint256"
        },
        {
          "internalType": "uint256",
          "name": "",
          "type": "uint256"
        },
        {
          "internalType": "string",
          "name": "",
          "type": "string"
        },
        {
          "internalType": "uint256",
          "name": "",
          "type": "uint256"
        },
        {
          "internalType": "uint256",
          "name": "",
          "type": "uint256"
        }
      ],
      "stateMutability": "view",
      "type": "function",
      "constant": true
    },
    {
      "inputs": [
        {
          "internalType": "uint256",
          "name": "_storeId",
          "type": "uint256"
        },
        {
          "internalType": "uint256",
          "name": "_itemId",
          "type": "uint256"
        },
        {
          "internalType": "uint256",
          "name": "_index",
          "type": "uint256"
        }
      ],
      "name": "getPriceForItemAtIndex",
      "outputs": [
        {
          "internalType": "uint256",
          "name": "",
          "type": "uint256"
        },
        {
          "internalType": "uint256",
          "name": "",
          "type": "uint256"
        },
        {
          "internalType": "address",
          "name": "",
          "type": "address"
        }
      ],
      "stateMutability": "view",
      "type": "function",
      "constant": true
    },
    {
      "inputs": [
        {
          "internalType": "uint256",
          "name": "_isoCurrency",
          "type": "uint256"
        },
        {
          "internalType": "string",
          "name": "_name",
          "type": "string"
        },
        {
          "internalType": "uint256",
          "name": "_price",
          "type": "uint256"
        }
      ],
      "name": "addNewItemToMyStore",
      "outputs": [],
      "stateMutability": "nonpayable",
      "type": "function"
    },
    {
      "inputs": [
        {
          "internalType": "uint256",
          "name": "_itemId",
          "type": "uint256"
        },
        {
          "internalType": "uint256",
          "name": "_amount",
          "type": "uint256"
        }
      ],
      "name": "updateItemPrice",
      "outputs": [],
      "stateMutability": "nonpayable",
      "type": "function"
    }
  ],
  "bytecode": "0x608060405234801561001057600080fd5b5060006100216100c460201b60201c565b9050806000806101000a81548173ffffffffffffffffffffffffffffffffffffffff021916908373ffffffffffffffffffffffffffffffffffffffff1602179055508073ffffffffffffffffffffffffffffffffffffffff16600073ffffffffffffffffffffffffffffffffffffffff167f8be0079c531659141344cd1fd0a4f28419497f9722a3daafe3b4186f6b6457e060405160405180910390a3506100cc565b600033905090565b614a4d806100db6000396000f3fe60806040523480156200001157600080fd5b5060043610620001185760003560e01c80639998c29d11620000a5578063e1b7e93a116200006f578063e1b7e93a14620006b5578063ecdd693814620006d5578063f2fde38b146200073c578063fa8e8d3a14620007835762000118565b80639998c29d1462000429578063a7c81db31462000484578063a86ca5111462000557578063ac1d4ff514620006385762000118565b8063715018a611620000e7578063715018a6146200032f57806372af1676146200033b5780638d4c611814620003825780638da5cb5b14620003f35762000118565b80632769b96b146200011d57806331855263146200015857806339a13696146200019f57806346b4fff71462000274575b600080fd5b62000156600480360360408110156200013557600080fd5b81019080803590602001909291908035906020019092919050505062000819565b005b6200019d600480360360208110156200017057600080fd5b81019080803573ffffffffffffffffffffffffffffffffffffffff169060200190929190505050620009f6565b005b6200027260048036036060811015620001b757600080fd5b810190808035906020019092919080359060200190640100000000811115620001df57600080fd5b820183602082011115620001f257600080fd5b803590602001918460018302840111640100000000831117156200021557600080fd5b91908080601f016020809104026020016040519081016040528093929190818152602001838380828437600081840152601f19601f8201169050808301925050505050505091929192908035906020019092919050505062000bc2565b005b620002a3600480360360208110156200028c57600080fd5b810190808035906020019092919050505062000e10565b6040518084815260200180602001838152602001828103825284818151815260200191508051906020019080838360005b83811015620002f1578082015181840152602081019050620002d4565b50505050905090810190601f1680156200031f5780820380516001836020036101000a031916815260200191505b5094505050505060405180910390f35b6200033962001011565b005b62000380600480360360208110156200035357600080fd5b81019080803573ffffffffffffffffffffffffffffffffffffffff16906020019092919050505062001183565b005b620003c7600480360360208110156200039a57600080fd5b81019080803573ffffffffffffffffffffffffffffffffffffffff1690602001909291905050506200134f565b604051808273ffffffffffffffffffffffffffffffffffffffff16815260200191505060405180910390f35b620003fd62001382565b604051808273ffffffffffffffffffffffffffffffffffffffff16815260200191505060405180910390f35b62000458600480360360208110156200044157600080fd5b8101908080359060200190929190505050620013ab565b604051808273ffffffffffffffffffffffffffffffffffffffff16815260200191505060405180910390f35b620004bd600480360360408110156200049c57600080fd5b810190808035906020019092919080359060200190929190505050620013de565b6040518086815260200185815260200180602001848152602001838152602001828103825285818151815260200191508051906020019080838360005b8381101562000517578082015181840152602081019050620004fa565b50505050905090810190601f168015620005455780820380516001836020036101000a031916815260200191505b50965050505050505060405180910390f35b62000636600480360360408110156200056f57600080fd5b81019080803590602001906401000000008111156200058d57600080fd5b820183602082011115620005a057600080fd5b80359060200191846001830284011164010000000083111715620005c357600080fd5b91908080601f016020809104026020016040519081016040528093929190818152602001838380828437600081840152601f19601f820116905080830192505050505050509192919290803573ffffffffffffffffffffffffffffffffffffffff16906020019092919050505062001607565b005b6200067b600480360360608110156200065057600080fd5b8101908080359060200190929190803590602001909291908035906020019092919050505062001955565b604051808481526020018381526020018273ffffffffffffffffffffffffffffffffffffffff168152602001935050505060405180910390f35b620006bf62001aa3565b6040518082815260200191505060405180910390f35b6200072460048036036040811015620006ed57600080fd5b8101908080359060200190929190803573ffffffffffffffffffffffffffffffffffffffff16906020019092919050505062001aa9565b60405180821515815260200191505060405180910390f35b62000781600480360360208110156200075457600080fd5b81019080803573ffffffffffffffffffffffffffffffffffffffff16906020019092919050505062001be7565b005b6200078d62001de0565b6040518084815260200180602001838152602001828103825284818151815260200191508051906020019080838360005b83811015620007db578082015181840152602081019050620007be565b50505050905090810190601f168015620008095780820380516001836020036101000a031916815260200191505b5094505050505060405180910390f35b600073ffffffffffffffffffffffffffffffffffffffff16600260003373ffffffffffffffffffffffffffffffffffffffff1673ffffffffffffffffffffffffffffffffffffffff16815260200190815260200160002060009054906101000a900473ffffffffffffffffffffffffffffffffffffffff1673ffffffffffffffffffffffffffffffffffffffff16141562000900576040517f08c379a0000000000000000000000000000000000000000000000000000000008152600401808060200182810382526029815260200180620049516029913960400191505060405180910390fd5b600260003373ffffffffffffffffffffffffffffffffffffffff1673ffffffffffffffffffffffffffffffffffffffff16815260200190815260200160002060009054906101000a900473ffffffffffffffffffffffffffffffffffffffff1673ffffffffffffffffffffffffffffffffffffffff16633cd499743384846040518463ffffffff1660e01b8152600401808473ffffffffffffffffffffffffffffffffffffffff1681526020018381526020018281526020019350505050600060405180830381600087803b158015620009d957600080fd5b505af1158015620009ee573d6000803e3d6000fd5b505050505050565b600073ffffffffffffffffffffffffffffffffffffffff16600260003373ffffffffffffffffffffffffffffffffffffffff1673ffffffffffffffffffffffffffffffffffffffff16815260200190815260200160002060009054906101000a900473ffffffffffffffffffffffffffffffffffffffff1673ffffffffffffffffffffffffffffffffffffffff16141562000add576040517f08c379a0000000000000000000000000000000000000000000000000000000008152600401808060200182810382526029815260200180620049516029913960400191505060405180910390fd5b600260003373ffffffffffffffffffffffffffffffffffffffff1673ffffffffffffffffffffffffffffffffffffffff16815260200190815260200160002060009054906101000a900473ffffffffffffffffffffffffffffffffffffffff1673ffffffffffffffffffffffffffffffffffffffff16631785f53c826040518263ffffffff1660e01b8152600401808273ffffffffffffffffffffffffffffffffffffffff168152602001915050600060405180830381600087803b15801562000ba657600080fd5b505af115801562000bbb573d6000803e3d6000fd5b5050505050565b600073ffffffffffffffffffffffffffffffffffffffff16600260003373ffffffffffffffffffffffffffffffffffffffff1673ffffffffffffffffffffffffffffffffffffffff16815260200190815260200160002060009054906101000a900473ffffffffffffffffffffffffffffffffffffffff1673ffffffffffffffffffffffffffffffffffffffff16141562000ca9576040517f08c379a0000000000000000000000000000000000000000000000000000000008152600401808060200182810382526029815260200180620049516029913960400191505060405180910390fd5b600260003373ffffffffffffffffffffffffffffffffffffffff1673ffffffffffffffffffffffffffffffffffffffff16815260200190815260200160002060009054906101000a900473ffffffffffffffffffffffffffffffffffffffff1673ffffffffffffffffffffffffffffffffffffffff16638d0c27c9338585856040518563ffffffff1660e01b8152600401808573ffffffffffffffffffffffffffffffffffffffff16815260200184815260200180602001838152602001828103825284818151815260200191508051906020019080838360005b8381101562000da157808201518184015260208101905062000d84565b50505050905090810190601f16801562000dcf5780820380516001836020036101000a031916815260200191505b5095505050505050600060405180830381600087803b15801562000df257600080fd5b505af115801562000e07573d6000803e3d6000fd5b50505050505050565b600060606000600354841062000e72576040517f08c379a0000000000000000000000000000000000000000000000000000000008152600401808060200182810382526026815260200180620049f26026913960400191505060405180910390fd5b6001600085815260200190815260200160002060009054906101000a900473ffffffffffffffffffffffffffffffffffffffff1673ffffffffffffffffffffffffffffffffffffffff16637343bfc66040518163ffffffff1660e01b815260040160006040518083038186803b15801562000eec57600080fd5b505afa15801562000f01573d6000803e3d6000fd5b505050506040513d6000823e3d601f19601f82011682018060405250606081101562000f2c57600080fd5b81019080805190602001909291908051604051939291908464010000000082111562000f5757600080fd5b8382019150602082018581111562000f6e57600080fd5b825186600182028301116401000000008211171562000f8c57600080fd5b8083526020830192505050908051906020019080838360005b8381101562000fc257808201518184015260208101905062000fa5565b50505050905090810190601f16801562000ff05780820380516001836020036101000a031916815260200191505b50604052602001805190602001909291905050509250925092509193909250565b6200101b62002095565b73ffffffffffffffffffffffffffffffffffffffff166200103b62001382565b73ffffffffffffffffffffffffffffffffffffffff1614620010c5576040517f08c379a00000000000000000000000000000000000000000000000000000000081526004018080602001828103825260208152602001807f4f776e61626c653a2063616c6c6572206973206e6f7420746865206f776e657281525060200191505060405180910390fd5b600073ffffffffffffffffffffffffffffffffffffffff1660008054906101000a900473ffffffffffffffffffffffffffffffffffffffff1673ffffffffffffffffffffffffffffffffffffffff167f8be0079c531659141344cd1fd0a4f28419497f9722a3daafe3b4186f6b6457e060405160405180910390a360008060006101000a81548173ffffffffffffffffffffffffffffffffffffffff021916908373ffffffffffffffffffffffffffffffffffffffff160217905550565b600073ffffffffffffffffffffffffffffffffffffffff16600260003373ffffffffffffffffffffffffffffffffffffffff1673ffffffffffffffffffffffffffffffffffffffff16815260200190815260200160002060009054906101000a900473ffffffffffffffffffffffffffffffffffffffff1673ffffffffffffffffffffffffffffffffffffffff1614156200126a576040517f08c379a0000000000000000000000000000000000000000000000000000000008152600401808060200182810382526029815260200180620049516029913960400191505060405180910390fd5b600260003373ffffffffffffffffffffffffffffffffffffffff1673ffffffffffffffffffffffffffffffffffffffff16815260200190815260200160002060009054906101000a900473ffffffffffffffffffffffffffffffffffffffff1673ffffffffffffffffffffffffffffffffffffffff166370480275826040518263ffffffff1660e01b8152600401808273ffffffffffffffffffffffffffffffffffffffff168152602001915050600060405180830381600087803b1580156200133357600080fd5b505af115801562001348573d6000803e3d6000fd5b5050505050565b60026020528060005260406000206000915054906101000a900473ffffffffffffffffffffffffffffffffffffffff1681565b60008060009054906101000a900473ffffffffffffffffffffffffffffffffffffffff16905090565b60016020528060005260406000206000915054906101000a900473ffffffffffffffffffffffffffffffffffffffff1681565b6000806060600080600354871062001442576040517f08c379a0000000000000000000000000000000000000000000000000000000008152600401808060200182810382526026815260200180620049f26026913960400191505060405180910390fd5b6001600088815260200190815260200160002060009054906101000a900473ffffffffffffffffffffffffffffffffffffffff1673ffffffffffffffffffffffffffffffffffffffff1663de7fe3e7876040518263ffffffff1660e01b81526004018082815260200191505060006040518083038186803b158015620014c757600080fd5b505afa158015620014dc573d6000803e3d6000fd5b505050506040513d6000823e3d601f19601f8201168201806040525060a08110156200150757600080fd5b810190808051906020019092919080519060200190929190805160405193929190846401000000008211156200153c57600080fd5b838201915060208201858111156200155357600080fd5b82518660018202830111640100000000821117156200157157600080fd5b8083526020830192505050908051906020019080838360005b83811015620015a75780820151818401526020810190506200158a565b50505050905090810190601f168015620015d55780820380516001836020036101000a031916815260200191505b506040526020018051906020019092919080519060200190929190505050945094509450945094509295509295909350565b6200161162002095565b73ffffffffffffffffffffffffffffffffffffffff166200163162001382565b73ffffffffffffffffffffffffffffffffffffffff1614620016bb576040517f08c379a00000000000000000000000000000000000000000000000000000000081526004018080602001828103825260208152602001807f4f776e61626c653a2063616c6c6572206973206e6f7420746865206f776e657281525060200191505060405180910390fd5b600073ffffffffffffffffffffffffffffffffffffffff16600260003373ffffffffffffffffffffffffffffffffffffffff1673ffffffffffffffffffffffffffffffffffffffff16815260200190815260200160002060009054906101000a900473ffffffffffffffffffffffffffffffffffffffff1673ffffffffffffffffffffffffffffffffffffffff1614620017a1576040517f08c379a00000000000000000000000000000000000000000000000000000000081526004018080602001828103825260528152602001806200497a6052913960600191505060405180910390fd5b60006003548383604051620017b6906200209d565b80848152602001806020018373ffffffffffffffffffffffffffffffffffffffff168152602001828103825284818151815260200191508051906020019080838360005b8381101562001817578082015181840152602081019050620017fa565b50505050905090810190601f168015620018455780820380516001836020036101000a031916815260200191505b50945050505050604051809103906000f08015801562001869573d6000803e3d6000fd5b5090508060016000600354815260200190815260200160002060006101000a81548173ffffffffffffffffffffffffffffffffffffffff021916908373ffffffffffffffffffffffffffffffffffffffff16021790555080600260008473ffffffffffffffffffffffffffffffffffffffff1673ffffffffffffffffffffffffffffffffffffffff16815260200190815260200160002060006101000a81548173ffffffffffffffffffffffffffffffffffffffff021916908373ffffffffffffffffffffffffffffffffffffffff160217905550600360008154809291906001019190505550505050565b60008060006003548610620019b6576040517f08c379a0000000000000000000000000000000000000000000000000000000008152600401808060200182810382526026815260200180620049f26026913960400191505060405180910390fd5b6001600087815260200190815260200160002060009054906101000a900473ffffffffffffffffffffffffffffffffffffffff1673ffffffffffffffffffffffffffffffffffffffff1663d054fa1d86866040518363ffffffff1660e01b8152600401808381526020018281526020019250505060606040518083038186803b15801562001a4357600080fd5b505afa15801562001a58573d6000803e3d6000fd5b505050506040513d606081101562001a6f57600080fd5b8101908080519060200190929190805190602001909291908051906020019092919050505092509250925093509350939050565b60035481565b6000600354831062001b07576040517f08c379a0000000000000000000000000000000000000000000000000000000008152600401808060200182810382526026815260200180620049f26026913960400191505060405180910390fd5b6001600084815260200190815260200160002060009054906101000a900473ffffffffffffffffffffffffffffffffffffffff1673ffffffffffffffffffffffffffffffffffffffff166324d7806c836040518263ffffffff1660e01b8152600401808273ffffffffffffffffffffffffffffffffffffffff16815260200191505060206040518083038186803b15801562001ba257600080fd5b505afa15801562001bb7573d6000803e3d6000fd5b505050506040513d602081101562001bce57600080fd5b8101908080519060200190929190505050905092915050565b62001bf162002095565b73ffffffffffffffffffffffffffffffffffffffff1662001c1162001382565b73ffffffffffffffffffffffffffffffffffffffff161462001c9b576040517f08c379a00000000000000000000000000000000000000000000000000000000081526004018080602001828103825260208152602001807f4f776e61626c653a2063616c6c6572206973206e6f7420746865206f776e657281525060200191505060405180910390fd5b600073ffffffffffffffffffffffffffffffffffffffff168173ffffffffffffffffffffffffffffffffffffffff16141562001d23576040517f08c379a0000000000000000000000000000000000000000000000000000000008152600401808060200182810382526026815260200180620049cc6026913960400191505060405180910390fd5b8073ffffffffffffffffffffffffffffffffffffffff1660008054906101000a900473ffffffffffffffffffffffffffffffffffffffff1673ffffffffffffffffffffffffffffffffffffffff167f8be0079c531659141344cd1fd0a4f28419497f9722a3daafe3b4186f6b6457e060405160405180910390a3806000806101000a81548173ffffffffffffffffffffffffffffffffffffffff021916908373ffffffffffffffffffffffffffffffffffffffff16021790555050565b6000606060008073ffffffffffffffffffffffffffffffffffffffff16600260003373ffffffffffffffffffffffffffffffffffffffff1673ffffffffffffffffffffffffffffffffffffffff16815260200190815260200160002060009054906101000a900473ffffffffffffffffffffffffffffffffffffffff1673ffffffffffffffffffffffffffffffffffffffff16141562001ecc576040517f08c379a0000000000000000000000000000000000000000000000000000000008152600401808060200182810382526029815260200180620049516029913960400191505060405180910390fd5b600260003373ffffffffffffffffffffffffffffffffffffffff1673ffffffffffffffffffffffffffffffffffffffff16815260200190815260200160002060009054906101000a900473ffffffffffffffffffffffffffffffffffffffff1673ffffffffffffffffffffffffffffffffffffffff16637343bfc66040518163ffffffff1660e01b815260040160006040518083038186803b15801562001f7257600080fd5b505afa15801562001f87573d6000803e3d6000fd5b505050506040513d6000823e3d601f19601f82011682018060405250606081101562001fb257600080fd5b81019080805190602001909291908051604051939291908464010000000082111562001fdd57600080fd5b8382019150602082018581111562001ff457600080fd5b82518660018202830111640100000000821117156200201257600080fd5b8083526020830192505050908051906020019080838360005b83811015620020485780820151818401526020810190506200202b565b50505050905090810190601f168015620020765780820380516001836020036101000a031916815260200191505b5060405260200180519060200190929190505050925092509250909192565b600033905090565b6128a580620020ac8339019056fe60806040523480156200001157600080fd5b50604051620028a5380380620028a5833981810160405260608110156200003757600080fd5b8101908080519060200190929190805160405193929190846401000000008211156200006257600080fd5b838201915060208201858111156200007957600080fd5b82518660018202830111640100000000821117156200009757600080fd5b8083526020830192505050908051906020019080838360005b83811015620000cd578082015181840152602081019050620000b0565b50505050905090810190601f168015620000fb5780820380516001836020036101000a031916815260200191505b50604052602001805190602001909291905050508260016000018190555081600180019080519060200190620001339291906200031a565b50620001496000801b826200018460201b60201c565b6200017b7fa49807205ce4d355092ef5a8a18f56e8913cf4a201fbe287825b095693c21775826200018460201b60201c565b505050620003c0565b6200019682826200019a60201b60201c565b5050565b620001c8816000808581526020019081526020016000206000016200023d60201b6200159b1790919060201c565b156200023957620001de6200027560201b60201c565b73ffffffffffffffffffffffffffffffffffffffff168173ffffffffffffffffffffffffffffffffffffffff16837f2f8788117e7eff1d82e926ec794901d17c78024a50270940304540a733656f0d60405160405180910390a45b5050565b60006200026d836000018373ffffffffffffffffffffffffffffffffffffffff1660001b6200027d60201b60201c565b905092915050565b600033905090565b6000620002918383620002f760201b60201c565b620002ec578260000182908060018154018082558091505060019003906000526020600020016000909190919091505582600001805490508360010160008481526020019081526020016000208190555060019050620002f1565b600090505b92915050565b600080836001016000848152602001908152602001600020541415905092915050565b828054600181600116156101000203166002900490600052602060002090601f016020900481019282601f106200035d57805160ff19168380011785556200038e565b828001600101855582156200038e579182015b828111156200038d57825182559160200191906001019062000370565b5b5090506200039d9190620003a1565b5090565b5b80821115620003bc576000816000905550600101620003a2565b5090565b6124d580620003d06000396000f3fe60806040523480156200001157600080fd5b50600436106200013c5760003560e01c80638d0c27c911620000bd578063bfb231d2116200007b578063bfb231d2146200064a578063ca15c87314620006a5578063d054fa1d14620006ea578063d547741f146200075d578063de7fe3e714620007ae576200013c565b80638d0c27c914620004245780639010d07c146200051957806391d14854146200057e578063a217fddf14620005e5578063a66a59d81462000605576200013c565b806336568abe116200010b57806336568abe146200027b5780633cd4997414620002cc5780637048027514620003275780637343bfc6146200036e57806375b238fc1462000404576200013c565b80631785f53c1462000141578063248a9ca3146200018857806324d7806c14620001cd5780632f2ff15d146200022a575b600080fd5b62000186600480360360208110156200015957600080fd5b81019080803573ffffffffffffffffffffffffffffffffffffffff16906020019092919050505062000877565b005b620001b760048036036020811015620001a057600080fd5b81019080803590602001909291905050506200092b565b6040518082815260200191505060405180910390f35b6200021260048036036020811015620001e557600080fd5b81019080803573ffffffffffffffffffffffffffffffffffffffff1690602001909291905050506200094a565b60405180821515815260200191505060405180910390f35b62000279600480360360408110156200024257600080fd5b8101908080359060200190929190803573ffffffffffffffffffffffffffffffffffffffff1690602001909291905050506200097f565b005b620002ca600480360360408110156200029357600080fd5b8101908080359060200190929190803573ffffffffffffffffffffffffffffffffffffffff16906020019092919050505062000a10565b005b6200032560048036036060811015620002e457600080fd5b81019080803573ffffffffffffffffffffffffffffffffffffffff169060200190929190803590602001909291908035906020019092919050505062000aaf565b005b6200036c600480360360208110156200033f57600080fd5b81019080803573ffffffffffffffffffffffffffffffffffffffff16906020019092919050505062000c57565b005b6200037862000d0b565b6040518084815260200180602001838152602001828103825284818151815260200191508051906020019080838360005b83811015620003c6578082015181840152602081019050620003a9565b50505050905090810190601f168015620003f45780820380516001836020036101000a031916815260200191505b5094505050505060405180910390f35b6200040e62000dbf565b6040518082815260200191505060405180910390f35b62000517600480360360808110156200043c57600080fd5b81019080803573ffffffffffffffffffffffffffffffffffffffff16906020019092919080359060200190929190803590602001906401000000008111156200048457600080fd5b8201836020820111156200049757600080fd5b80359060200191846001830284011164010000000083111715620004ba57600080fd5b91908080601f016020809104026020016040519081016040528093929190818152602001838380828437600081840152601f19601f8201169050808301925050505050505091929192908035906020019092919050505062000de3565b005b62000552600480360360408110156200053157600080fd5b81019080803590602001909291908035906020019092919050505062000fb9565b604051808273ffffffffffffffffffffffffffffffffffffffff16815260200191505060405180910390f35b620005cd600480360360408110156200059657600080fd5b8101908080359060200190929190803573ffffffffffffffffffffffffffffffffffffffff16906020019092919050505062000fec565b60405180821515815260200191505060405180910390f35b620005ef6200101f565b6040518082815260200191505060405180910390f35b62000634600480360360208110156200061d57600080fd5b810190808035906020019092919050505062001026565b6040518082815260200191505060405180910390f35b62000679600480360360208110156200066257600080fd5b810190808035906020019092919050505062001146565b604051808273ffffffffffffffffffffffffffffffffffffffff16815260200191505060405180910390f35b620006d460048036036020811015620006bd57600080fd5b810190808035906020019092919050505062001179565b6040518082815260200191505060405180910390f35b62000723600480360360408110156200070257600080fd5b810190808035906020019092919080359060200190929190505050620011a1565b604051808481526020018381526020018273ffffffffffffffffffffffffffffffffffffffff168152602001935050505060405180910390f35b620007ac600480360360408110156200077557600080fd5b8101908080359060200190929190803573ffffffffffffffffffffffffffffffffffffffff169060200190929190505050620012e9565b005b620007dd60048036036020811015620007c657600080fd5b81019080803590602001909291905050506200137a565b6040518086815260200185815260200180602001848152602001838152602001828103825285818151815260200191508051906020019080838360005b83811015620008375780820151818401526020810190506200081a565b50505050905090810190601f168015620008655780820380516001836020036101000a031916815260200191505b50965050505050505060405180910390f35b33620008a47fa49807205ce4d355092ef5a8a18f56e8913cf4a201fbe287825b095693c217758262000fec565b620008fb576040517f08c379a00000000000000000000000000000000000000000000000000000000081526004018080602001828103825260218152602001806200241f6021913960400191505060405180910390fd5b620009277fa49807205ce4d355092ef5a8a18f56e8913cf4a201fbe287825b095693c2177583620012e9565b5050565b6000806000838152602001908152602001600020600201549050919050565b6000620009787fa49807205ce4d355092ef5a8a18f56e8913cf4a201fbe287825b095693c217758362000fec565b9050919050565b620009a960008084815260200190815260200160002060020154620009a3620015cd565b62000fec565b62000a00576040517f08c379a000000000000000000000000000000000000000000000000000000000815260040180806020018281038252602f815260200180620023c0602f913960400191505060405180910390fd5b62000a0c8282620015d5565b5050565b62000a1a620015cd565b73ffffffffffffffffffffffffffffffffffffffff168173ffffffffffffffffffffffffffffffffffffffff161462000a9f576040517f08c379a000000000000000000000000000000000000000000000000000000000815260040180806020018281038252602f81526020018062002471602f913960400191505060405180910390fd5b62000aab82826200166d565b5050565b8262000adc7fa49807205ce4d355092ef5a8a18f56e8913cf4a201fbe287825b095693c217758262000fec565b62000b33576040517f08c379a00000000000000000000000000000000000000000000000000000000081526004018080602001828103825260218152602001806200241f6021913960400191505060405180910390fd5b60016002015483111562000b93576040517f08c379a0000000000000000000000000000000000000000000000000000000008152600401808060200182810382526031815260200180620024406031913960400191505060405180910390fd5b6004600084815260200190815260200160002060009054906101000a900473ffffffffffffffffffffffffffffffffffffffff1673ffffffffffffffffffffffffffffffffffffffff1663e9ffaadb83866040518363ffffffff1660e01b8152600401808381526020018273ffffffffffffffffffffffffffffffffffffffff16815260200192505050600060405180830381600087803b15801562000c3857600080fd5b505af115801562000c4d573d6000803e3d6000fd5b5050505050505050565b3362000c847fa49807205ce4d355092ef5a8a18f56e8913cf4a201fbe287825b095693c217758262000fec565b62000cdb576040517f08c379a00000000000000000000000000000000000000000000000000000000081526004018080602001828103825260218152602001806200241f6021913960400191505060405180910390fd5b62000d077fa49807205ce4d355092ef5a8a18f56e8913cf4a201fbe287825b095693c217758362001705565b5050565b6001806000015490806001018054600181600116156101000203166002900480601f01602080910402602001604051908101604052809291908181526020018280546001816001161561010002031660029004801562000daf5780601f1062000d835761010080835404028352916020019162000daf565b820191906000526020600020905b81548152906001019060200180831162000d9157829003601f168201915b5050505050908060020154905083565b7fa49807205ce4d355092ef5a8a18f56e8913cf4a201fbe287825b095693c2177581565b8362000e107fa49807205ce4d355092ef5a8a18f56e8913cf4a201fbe287825b095693c217758262000fec565b62000e67576040517f08c379a00000000000000000000000000000000000000000000000000000000081526004018080602001828103825260218152602001806200241f6021913960400191505060405180910390fd5b60003060016002015486868660405162000e8190620019c7565b808673ffffffffffffffffffffffffffffffffffffffff16815260200185815260200184815260200180602001838152602001828103825284818151815260200191508051906020019080838360005b8381101562000eee57808201518184015260208101905062000ed1565b50505050905090810190601f16801562000f1c5780820380516001836020036101000a031916815260200191505b509650505050505050604051809103906000f08015801562000f42573d6000803e3d6000fd5b5090508060046000600160020154815260200190815260200160002060006101000a81548173ffffffffffffffffffffffffffffffffffffffff021916908373ffffffffffffffffffffffffffffffffffffffff160217905550600160020160008154809291906001019190505550505050505050565b600062000fe4826000808681526020019081526020016000206000016200171590919063ffffffff16565b905092915050565b600062001017826000808681526020019081526020016000206000016200173190919063ffffffff16565b905092915050565b6000801b81565b600060016002015482111562001088576040517f08c379a0000000000000000000000000000000000000000000000000000000008152600401808060200182810382526031815260200180620024406031913960400191505060405180910390fd5b6004600083815260200190815260200160002060009054906101000a900473ffffffffffffffffffffffffffffffffffffffff1673ffffffffffffffffffffffffffffffffffffffff16637b12291a6040518163ffffffff1660e01b815260040160206040518083038186803b1580156200110257600080fd5b505afa15801562001117573d6000803e3d6000fd5b505050506040513d60208110156200112e57600080fd5b81019080805190602001909291905050509050919050565b60046020528060005260406000206000915054906101000a900473ffffffffffffffffffffffffffffffffffffffff1681565b60006200119a60008084815260200190815260200160002060000162001763565b9050919050565b600080600060016002015485111562001206576040517f08c379a0000000000000000000000000000000000000000000000000000000008152600401808060200182810382526031815260200180620024406031913960400191505060405180910390fd5b6004600086815260200190815260200160002060009054906101000a900473ffffffffffffffffffffffffffffffffffffffff1673ffffffffffffffffffffffffffffffffffffffff1663c8104e01856040518263ffffffff1660e01b81526004018082815260200191505060606040518083038186803b1580156200128b57600080fd5b505afa158015620012a0573d6000803e3d6000fd5b505050506040513d6060811015620012b757600080fd5b810190808051906020019092919080519060200190929190805190602001909291905050509250925092509250925092565b62001313600080848152602001908152602001600020600201546200130d620015cd565b62000fec565b6200136a576040517f08c379a0000000000000000000000000000000000000000000000000000000008152600401808060200182810382526030815260200180620023ef6030913960400191505060405180910390fd5b6200137682826200166d565b5050565b6000806060600080600160020154861115620013e2576040517f08c379a0000000000000000000000000000000000000000000000000000000008152600401808060200182810382526031815260200180620024406031913960400191505060405180910390fd5b6004600087815260200190815260200160002060009054906101000a900473ffffffffffffffffffffffffffffffffffffffff1673ffffffffffffffffffffffffffffffffffffffff1663a706bf146040518163ffffffff1660e01b815260040160006040518083038186803b1580156200145c57600080fd5b505afa15801562001471573d6000803e3d6000fd5b505050506040513d6000823e3d601f19601f8201168201806040525060a08110156200149c57600080fd5b81019080805190602001909291908051906020019092919080516040519392919084640100000000821115620014d157600080fd5b83820191506020820185811115620014e857600080fd5b82518660018202830111640100000000821117156200150657600080fd5b8083526020830192505050908051906020019080838360005b838110156200153c5780820151818401526020810190506200151f565b50505050905090810190601f1680156200156a5780820380516001836020036101000a031916815260200191505b5060405260200180519060200190929190805190602001909291905050509450945094509450945091939590929450565b6000620015c5836000018373ffffffffffffffffffffffffffffffffffffffff1660001b6200177a565b905092915050565b600033905090565b620015fe816000808581526020019081526020016000206000016200159b90919063ffffffff16565b1562001669576200160e620015cd565b73ffffffffffffffffffffffffffffffffffffffff168173ffffffffffffffffffffffffffffffffffffffff16837f2f8788117e7eff1d82e926ec794901d17c78024a50270940304540a733656f0d60405160405180910390a45b5050565b6200169681600080858152602001908152602001600020600001620017ee90919063ffffffff16565b156200170157620016a6620015cd565b73ffffffffffffffffffffffffffffffffffffffff168173ffffffffffffffffffffffffffffffffffffffff16837ff6391f5c32d9c69d2a47ea670b442974b53935d1edc7fd64eb21e047a839171b60405160405180910390a45b5050565b620017118282620015d5565b5050565b600062001726836000018362001820565b60001c905092915050565b60006200175b836000018373ffffffffffffffffffffffffffffffffffffffff1660001b620018a6565b905092915050565b60006200177382600001620018c9565b9050919050565b6000620017888383620018a6565b620017e3578260000182908060018154018082558091505060019003906000526020600020016000909190919091505582600001805490508360010160008481526020019081526020016000208190555060019050620017e8565b600090505b92915050565b600062001818836000018373ffffffffffffffffffffffffffffffffffffffff1660001b620018da565b905092915050565b60008183600001805490501162001883576040517f08c379a00000000000000000000000000000000000000000000000000000000081526004018080602001828103825260228152602001806200239e6022913960400191505060405180910390fd5b8260000182815481106200189357fe5b9060005260206000200154905092915050565b600080836001016000848152602001908152602001600020541415905092915050565b600081600001805490509050919050565b60008083600101600084815260200190815260200160002054905060008114620019bb57600060018203905060006001866000018054905003905060008660000182815481106200192757fe5b90600052602060002001549050808760000184815481106200194557fe5b90600052602060002001819055506001830187600101600083815260200190815260200160002081905550866000018054806200197e57fe5b60019003818190600052602060002001600090559055866001016000878152602001908152602001600020600090556001945050505050620019c1565b60009150505b92915050565b6109c880620019d68339019056fe608060405234801561001057600080fd5b506040516109c83803806109c8833981810160405260a081101561003357600080fd5b810190808051906020019092919080519060200190929190805190602001909291908051604051939291908464010000000082111561007157600080fd5b8382019150602082018581111561008757600080fd5b82518660018202830111640100000000821117156100a457600080fd5b8083526020830192505050908051906020019080838360005b838110156100d85780820151818401526020810190506100bd565b50505050905090810190601f1680156101055780820380516001836020036101000a031916815260200191505b506040526020018051906020019092919050505084600660006101000a81548173ffffffffffffffffffffffffffffffffffffffff021916908373ffffffffffffffffffffffffffffffffffffffff16021790555083600080018190555082600060010181905550816000600201908051906020019061018692919061025b565b5061019781336101a160201b60201c565b50505050506102f8565b816005600080600401548152602001908152602001600020600001819055504260056000806004015481526020019081526020016000206001018190555080600560008060040154815260200190815260200160002060020160006101000a81548173ffffffffffffffffffffffffffffffffffffffff021916908373ffffffffffffffffffffffffffffffffffffffff160217905550816000600301819055506000600401600081548092919060010191905055505050565b828054600181600116156101000203166002900490600052602060002090601f016020900481019282601f1061029c57805160ff19168380011785556102ca565b828001600101855582156102ca579182015b828111156102c95782518255916020019190600101906102ae565b5b5090506102d791906102db565b5090565b5b808211156102f45760008160009055506001016102dc565b5090565b6106c1806103076000396000f3fe608060405234801561001057600080fd5b50600436106100575760003560e01c80637b12291a1461005c578063a706bf141461007a578063bc31c1c114610119578063c8104e011461017f578063e9ffaadb146101e5575b600080fd5b610064610233565b6040518082815260200191505060405180910390f35b61008261023f565b6040518086815260200185815260200180602001848152602001838152602001828103825285818151815260200191508051906020019080838360005b838110156100da5780820151818401526020810190506100bf565b50505050905090810190601f1680156101075780820380516001836020036101000a031916815260200191505b50965050505050505060405180910390f35b6101456004803603602081101561012f57600080fd5b81019080803590602001909291905050506102fb565b604051808481526020018381526020018273ffffffffffffffffffffffffffffffffffffffff168152602001935050505060405180910390f35b6101ab6004803603602081101561019557600080fd5b8101908080359060200190929190505050610345565b604051808481526020018381526020018273ffffffffffffffffffffffffffffffffffffffff168152602001935050505060405180910390f35b610231600480360360408110156101fb57600080fd5b8101908080359060200190929190803573ffffffffffffffffffffffffffffffffffffffff169060200190929190505050610418565b005b60008060040154905090565b6000806000015490806001015490806002018054600181600116156101000203166002900480601f0160208091040260200160405190810160405280929190818152602001828054600181600116156101000203166002900480156102e55780601f106102ba576101008083540402835291602001916102e5565b820191906000526020600020905b8154815290600101906020018083116102c857829003601f168201915b5050505050908060030154908060040154905085565b60056020528060005260406000206000915090508060000154908060010154908060020160009054906101000a900473ffffffffffffffffffffffffffffffffffffffff16905083565b6000806000806004015484106103a6576040517f08c379a000000000000000000000000000000000000000000000000000000000815260040180806020018281038252602d8152602001806105fc602d913960400191505060405180910390fd5b600560008581526020019081526020016000206000015460056000868152602001908152602001600020600101546005600087815260200190815260200160002060020160009054906101000a900473ffffffffffffffffffffffffffffffffffffffff169250925092509193909250565b80600660009054906101000a900473ffffffffffffffffffffffffffffffffffffffff1673ffffffffffffffffffffffffffffffffffffffff166324d7806c826040518263ffffffff1660e01b8152600401808273ffffffffffffffffffffffffffffffffffffffff16815260200191505060206040518083038186803b1580156104a257600080fd5b505afa1580156104b6573d6000803e3d6000fd5b505050506040513d60208110156104cc57600080fd5b8101908080519060200190929190505050610532576040517f08c379a00000000000000000000000000000000000000000000000000000000081526004018080602001828103825260638152602001806106296063913960800191505060405180910390fd5b61053c8383610541565b505050565b816005600080600401548152602001908152602001600020600001819055504260056000806004015481526020019081526020016000206001018190555080600560008060040154815260200190815260200160002060020160006101000a81548173ffffffffffffffffffffffffffffffffffffffff021916908373ffffffffffffffffffffffffffffffffffffffff16021790555081600060030181905550600060040160008154809291906001019190505550505056fe5468657265206973206e6f20707269636520656e74727920776974682073706563696669656420696e6465782e596f7520617265206e6f7420616c6c6f77656420746f2075706461746520746865207072696365206f6620746865206974656d21204f6e6c792061646d696e73206f66207468652073746f72652063616e207570646174652074686520707269636521a2646970667358221220c8fa11d96cf0fb57fc15ff4b22badcb135ee728c2345acc563e385d0bce036f164736f6c634300060c0033456e756d657261626c655365743a20696e646578206f7574206f6620626f756e6473416363657373436f6e74726f6c3a2073656e646572206d75737420626520616e2061646d696e20746f206772616e74416363657373436f6e74726f6c3a2073656e646572206d75737420626520616e2061646d696e20746f207265766f6b6543616c6c6572206973206e6f7420616e2061646d696e206f6620612073746f72654974656d20776974682070726f766964656420696420646f65736e277420657869737420696e20746869732073746f7265416363657373436f6e74726f6c3a2063616e206f6e6c792072656e6f756e636520726f6c657320666f722073656c66a26469706673582212206c32445016a6274eb3d62b9492c0d40ecf192e83afc9fbe2924eca373128639164736f6c634300060c0033596f7520646f6e2774206861766520616e792073746f72652061737369676e656420746f20796f7521596f7520616c72656164792068617665206372656174656420612073746f72652120506c656173652063616c6c206765744d7953746f7265496e666f206d6574686f6420666f72206d6f726520696e666f2e4f776e61626c653a206e6577206f776e657220697320746865207a65726f206164647265737353746f726520776974682073706563696669656420696420646f65736e277420657869737421a2646970667358221220eebc285925b2de598f2156cd0aef710e6d75f202782e87bb8b6ae2282795a8d964736f6c634300060c0033",
  "immutableReferences": {},
  "source": "// SPDX-License-Identifier: GPL-3.0\r\n\r\npragma solidity >=0.6.0 <0.8.0;\r\n\r\nimport \"./Store.sol\";\r\nimport \"@openzeppelin/contracts/access/Ownable.sol\";\r\n\r\n\r\n/**\r\n * @title StoreManager\r\n * @dev StoreManager contract for managing stores, items and prices. One address could be managining only one store.\r\n */\r\ncontract StoreManager is Ownable {\r\n    \r\n    mapping(uint256 => Store) public storeIdMapping;\r\n    mapping(address => Store) public storeAddressMapping;\r\n    uint256 public numOfStores;\r\n\r\n    /**\r\n     * @dev Creates new store (only one store per account is allowed)\r\n     * @param _name name of the store\r\n     * @param _admin address of the store admin\r\n     */\r\n    function createNewStore(string memory _name, address _admin) onlyOwner public {\r\n        require(address(storeAddressMapping[msg.sender]) == address(0), \"You already have created a store! Please call getMyStoreInfo method for more info.\");\r\n        Store store = new Store(numOfStores, _name, _admin);\r\n        storeIdMapping[numOfStores] = store;\r\n        storeAddressMapping[_admin] = store;\r\n        numOfStores++;\r\n    }\r\n    \r\n    /**\r\n     * @dev Returns basic information for selected store\r\n     * @param _storeId name of the store\r\n     * @return returns tuple(storeId, name, numberOfItems)\r\n     */\r\n    function getStoreInfoById(uint256 _storeId) public view returns(uint256, string memory, uint256) {\r\n        require(_storeId < numOfStores, \"Store with specified id doesn't exist!\");\r\n        return storeIdMapping[_storeId].storeInfo();\r\n    }\r\n    \r\n    /**\r\n     * @dev Returns basic information for the store where sender is admin\r\n     * @return tuple(storeId, name, numberOfItems)\r\n     */\r\n    function getMyStoreInfo() public view returns(uint256, string memory, uint256) {\r\n        require(address(storeAddressMapping[msg.sender]) != address(0), \"You don't have any store assigned to you!\");\r\n        return storeAddressMapping[msg.sender].storeInfo();\r\n    }\r\n    \r\n    /**\r\n     * @dev Grants specified address the admin rights for the store\r\n     * @param _address user that will have admin rights\r\n     */\r\n    function addAdminToMyStore(address _address) public {\r\n        require(address(storeAddressMapping[msg.sender]) != address(0), \"You don't have any store assigned to you!\");\r\n        storeAddressMapping[msg.sender].addAdmin(_address);\r\n    }\r\n    \r\n    /**\r\n     * @dev Revokes admin rights for the store for the specified address \r\n     * @param _address user that will have admin rights removed\r\n     */\r\n    function removeAdminFromMyStore(address _address) public {\r\n        require(address(storeAddressMapping[msg.sender]) != address(0), \"You don't have any store assigned to you!\");\r\n        storeAddressMapping[msg.sender].removeAdmin(_address);\r\n    }\r\n    \r\n    /**\r\n     * @dev Checks if the specified address has admin rights for the store  \r\n     * @param _storeId identifier for the store entry\r\n     * @param _address of the user\r\n     */\r\n    function isStoreAdmin(uint256 _storeId, address _address) public view returns(bool) {\r\n        require(_storeId < numOfStores, \"Store with specified id doesn't exist!\");\r\n        return storeIdMapping[_storeId].isAdmin(_address);\r\n    }\r\n    \r\n    /**\r\n     * @dev Returns the basic information for the selected item in the store \r\n     * @param _storeId identifier for the store entry\r\n     * @param _itemId identifier of the item in the store\r\n     * @return tuple(itemId, isoCurrency, name, lastPrice, numberOfPriceChanges)\r\n     */\r\n    function getItemInfo(uint256 _storeId, uint256 _itemId) public view returns(uint256, uint256, string memory, uint256, uint256) {\r\n        require(_storeId < numOfStores, \"Store with specified id doesn't exist!\");\r\n        return storeIdMapping[_storeId].getItemInfo(_itemId);\r\n    }\r\n    \r\n    /**\r\n     * @dev Returns the selected price entry for the item in the store \r\n     * @param _storeId identifier for the store entry\r\n     * @param _itemId identifier of the item in the store\r\n     * @param _index price index\r\n     * @return tuple(amount, unixTimestamp, updatedUser)\r\n     */\r\n    function getPriceForItemAtIndex(uint256 _storeId, uint256 _itemId, uint256 _index) public view returns(uint256, uint256, address){\r\n        require(_storeId < numOfStores, \"Store with specified id doesn't exist!\");\r\n        return storeIdMapping[_storeId].getPriceForItemAtIndex(_itemId, _index);\r\n    }\r\n    \r\n    /**\r\n     * @dev Creates new item and adds it to the store \r\n     * @param _isoCurrency currency identifier according to the ISO-4127 standard\r\n     * @param _name name of the item\r\n     * @param _price price of the item\r\n     */\r\n    function addNewItemToMyStore(uint256 _isoCurrency, string memory _name, uint _price) public {\r\n        require(address(storeAddressMapping[msg.sender]) != address(0), \"You don't have any store assigned to you!\");\r\n        storeAddressMapping[msg.sender].createNewItem(msg.sender, _isoCurrency, _name, _price);\r\n    }\r\n    \r\n    /**\r\n     * @dev Updates the price of the item under sender's store \r\n     * @param _itemId identifier of the item whose price will be updated\r\n     * @param _amount new price for the item\r\n     */\r\n    function updateItemPrice(uint256 _itemId, uint256 _amount) public {\r\n        require(address(storeAddressMapping[msg.sender]) != address(0), \"You don't have any store assigned to you!\");\r\n        storeAddressMapping[msg.sender].updateItemPrice(msg.sender, _itemId, _amount);\r\n    }\r\n    \r\n   \r\n}",
  "sourcePath": "C:/Users/DJKrivi/Desktop/Master/Master teza/Implementacija/contracts/StoreManager.sol",
  "compiler": {
    "name": "solc",
    "version": "0.6.12+commit.27d51765.Emscripten.clang"
  },
  "schemaVersion": "3.2.3",
  "updatedAt": "2021-02-17T18:46:59.531Z",
  "networkType": "ethereum",
  "devdoc": {
    "details": "StoreManager contract for managing stores, items and prices. One address could be managining only one store.",
    "kind": "dev",
    "methods": {
      "addAdminToMyStore(address)": {
        "details": "Grants specified address the admin rights for the store",
        "params": {
          "_address": "user that will have admin rights"
        }
      },
      "addNewItemToMyStore(uint256,string,uint256)": {
        "details": "Creates new item and adds it to the store ",
        "params": {
          "_isoCurrency": "currency identifier according to the ISO-4127 standard",
          "_name": "name of the item",
          "_price": "price of the item"
        }
      },
      "createNewStore(string,address)": {
        "details": "Creates new store (only one store per account is allowed)",
        "params": {
          "_admin": "address of the store admin",
          "_name": "name of the store"
        }
      },
      "getItemInfo(uint256,uint256)": {
        "details": "Returns the basic information for the selected item in the store ",
        "params": {
          "_itemId": "identifier of the item in the store",
          "_storeId": "identifier for the store entry"
        },
        "returns": {
          "_0": "tuple(itemId, isoCurrency, name, lastPrice, numberOfPriceChanges)"
        }
      },
      "getMyStoreInfo()": {
        "details": "Returns basic information for the store where sender is admin",
        "returns": {
          "_0": "tuple(storeId, name, numberOfItems)"
        }
      },
      "getPriceForItemAtIndex(uint256,uint256,uint256)": {
        "details": "Returns the selected price entry for the item in the store ",
        "params": {
          "_index": "price index",
          "_itemId": "identifier of the item in the store",
          "_storeId": "identifier for the store entry"
        },
        "returns": {
          "_0": "tuple(amount, unixTimestamp, updatedUser)"
        }
      },
      "getStoreInfoById(uint256)": {
        "details": "Returns basic information for selected store",
        "params": {
          "_storeId": "name of the store"
        },
        "returns": {
          "_0": "returns tuple(storeId, name, numberOfItems)"
        }
      },
      "isStoreAdmin(uint256,address)": {
        "details": "Checks if the specified address has admin rights for the store  ",
        "params": {
          "_address": "of the user",
          "_storeId": "identifier for the store entry"
        }
      },
      "owner()": {
        "details": "Returns the address of the current owner."
      },
      "removeAdminFromMyStore(address)": {
        "details": "Revokes admin rights for the store for the specified address ",
        "params": {
          "_address": "user that will have admin rights removed"
        }
      },
      "renounceOwnership()": {
        "details": "Leaves the contract without owner. It will not be possible to call `onlyOwner` functions anymore. Can only be called by the current owner. NOTE: Renouncing ownership will leave the contract without an owner, thereby removing any functionality that is only available to the owner."
      },
      "transferOwnership(address)": {
        "details": "Transfers ownership of the contract to a new account (`newOwner`). Can only be called by the current owner."
      },
      "updateItemPrice(uint256,uint256)": {
        "details": "Updates the price of the item under sender's store ",
        "params": {
          "_amount": "new price for the item",
          "_itemId": "identifier of the item whose price will be updated"
        }
      }
    },
    "title": "StoreManager",
    "version": 1
  },
  "userdoc": {
    "kind": "user",
    "methods": {},
    "version": 1
  }
}