{
  "contractName": "Store",
  "abi": [
    {
      "inputs": [
        {
          "internalType": "uint256",
          "name": "_storeId",
          "type": "uint256"
        },
        {
          "internalType": "string",
          "name": "_name",
          "type": "string"
        },
        {
          "internalType": "address",
          "name": "_admin",
          "type": "address"
        }
      ],
      "stateMutability": "nonpayable",
      "type": "constructor"
    },
    {
      "anonymous": false,
      "inputs": [
        {
          "indexed": true,
          "internalType": "bytes32",
          "name": "role",
          "type": "bytes32"
        },
        {
          "indexed": true,
          "internalType": "bytes32",
          "name": "previousAdminRole",
          "type": "bytes32"
        },
        {
          "indexed": true,
          "internalType": "bytes32",
          "name": "newAdminRole",
          "type": "bytes32"
        }
      ],
      "name": "RoleAdminChanged",
      "type": "event"
    },
    {
      "anonymous": false,
      "inputs": [
        {
          "indexed": true,
          "internalType": "bytes32",
          "name": "role",
          "type": "bytes32"
        },
        {
          "indexed": true,
          "internalType": "address",
          "name": "account",
          "type": "address"
        },
        {
          "indexed": true,
          "internalType": "address",
          "name": "sender",
          "type": "address"
        }
      ],
      "name": "RoleGranted",
      "type": "event"
    },
    {
      "anonymous": false,
      "inputs": [
        {
          "indexed": true,
          "internalType": "bytes32",
          "name": "role",
          "type": "bytes32"
        },
        {
          "indexed": true,
          "internalType": "address",
          "name": "account",
          "type": "address"
        },
        {
          "indexed": true,
          "internalType": "address",
          "name": "sender",
          "type": "address"
        }
      ],
      "name": "RoleRevoked",
      "type": "event"
    },
    {
      "inputs": [],
      "name": "ADMIN_ROLE",
      "outputs": [
        {
          "internalType": "bytes32",
          "name": "",
          "type": "bytes32"
        }
      ],
      "stateMutability": "view",
      "type": "function"
    },
    {
      "inputs": [],
      "name": "DEFAULT_ADMIN_ROLE",
      "outputs": [
        {
          "internalType": "bytes32",
          "name": "",
          "type": "bytes32"
        }
      ],
      "stateMutability": "view",
      "type": "function"
    },
    {
      "inputs": [
        {
          "internalType": "bytes32",
          "name": "role",
          "type": "bytes32"
        }
      ],
      "name": "getRoleAdmin",
      "outputs": [
        {
          "internalType": "bytes32",
          "name": "",
          "type": "bytes32"
        }
      ],
      "stateMutability": "view",
      "type": "function"
    },
    {
      "inputs": [
        {
          "internalType": "bytes32",
          "name": "role",
          "type": "bytes32"
        },
        {
          "internalType": "uint256",
          "name": "index",
          "type": "uint256"
        }
      ],
      "name": "getRoleMember",
      "outputs": [
        {
          "internalType": "address",
          "name": "",
          "type": "address"
        }
      ],
      "stateMutability": "view",
      "type": "function"
    },
    {
      "inputs": [
        {
          "internalType": "bytes32",
          "name": "role",
          "type": "bytes32"
        }
      ],
      "name": "getRoleMemberCount",
      "outputs": [
        {
          "internalType": "uint256",
          "name": "",
          "type": "uint256"
        }
      ],
      "stateMutability": "view",
      "type": "function"
    },
    {
      "inputs": [
        {
          "internalType": "bytes32",
          "name": "role",
          "type": "bytes32"
        },
        {
          "internalType": "address",
          "name": "account",
          "type": "address"
        }
      ],
      "name": "grantRole",
      "outputs": [],
      "stateMutability": "nonpayable",
      "type": "function"
    },
    {
      "inputs": [
        {
          "internalType": "bytes32",
          "name": "role",
          "type": "bytes32"
        },
        {
          "internalType": "address",
          "name": "account",
          "type": "address"
        }
      ],
      "name": "hasRole",
      "outputs": [
        {
          "internalType": "bool",
          "name": "",
          "type": "bool"
        }
      ],
      "stateMutability": "view",
      "type": "function"
    },
    {
      "inputs": [
        {
          "internalType": "uint256",
          "name": "",
          "type": "uint256"
        }
      ],
      "name": "items",
      "outputs": [
        {
          "internalType": "contract Item",
          "name": "",
          "type": "address"
        }
      ],
      "stateMutability": "view",
      "type": "function"
    },
    {
      "inputs": [
        {
          "internalType": "bytes32",
          "name": "role",
          "type": "bytes32"
        },
        {
          "internalType": "address",
          "name": "account",
          "type": "address"
        }
      ],
      "name": "renounceRole",
      "outputs": [],
      "stateMutability": "nonpayable",
      "type": "function"
    },
    {
      "inputs": [
        {
          "internalType": "bytes32",
          "name": "role",
          "type": "bytes32"
        },
        {
          "internalType": "address",
          "name": "account",
          "type": "address"
        }
      ],
      "name": "revokeRole",
      "outputs": [],
      "stateMutability": "nonpayable",
      "type": "function"
    },
    {
      "inputs": [],
      "name": "storeInfo",
      "outputs": [
        {
          "internalType": "uint256",
          "name": "storeId",
          "type": "uint256"
        },
        {
          "internalType": "string",
          "name": "name",
          "type": "string"
        },
        {
          "internalType": "uint256",
          "name": "numOfItems",
          "type": "uint256"
        }
      ],
      "stateMutability": "view",
      "type": "function"
    },
    {
      "inputs": [
        {
          "internalType": "address",
          "name": "_sender",
          "type": "address"
        },
        {
          "internalType": "address",
          "name": "_address",
          "type": "address"
        }
      ],
      "name": "addAdmin",
      "outputs": [],
      "stateMutability": "nonpayable",
      "type": "function"
    },
    {
      "inputs": [
        {
          "internalType": "address",
          "name": "_sender",
          "type": "address"
        },
        {
          "internalType": "address",
          "name": "_address",
          "type": "address"
        }
      ],
      "name": "removeAdmin",
      "outputs": [],
      "stateMutability": "nonpayable",
      "type": "function"
    },
    {
      "inputs": [
        {
          "internalType": "address",
          "name": "_address",
          "type": "address"
        }
      ],
      "name": "isAdmin",
      "outputs": [
        {
          "internalType": "bool",
          "name": "",
          "type": "bool"
        }
      ],
      "stateMutability": "view",
      "type": "function"
    },
    {
      "inputs": [
        {
          "internalType": "address",
          "name": "_address",
          "type": "address"
        },
        {
          "internalType": "uint256",
          "name": "_isoCurrency",
          "type": "uint256"
        },
        {
          "internalType": "string",
          "name": "_name",
          "type": "string"
        },
        {
          "internalType": "uint256",
          "name": "_price",
          "type": "uint256"
        }
      ],
      "name": "createNewItem",
      "outputs": [],
      "stateMutability": "nonpayable",
      "type": "function"
    },
    {
      "inputs": [
        {
          "internalType": "address",
          "name": "_address",
          "type": "address"
        },
        {
          "internalType": "uint256",
          "name": "_itemId",
          "type": "uint256"
        },
        {
          "internalType": "uint256",
          "name": "_amount",
          "type": "uint256"
        }
      ],
      "name": "updateItemPrice",
      "outputs": [],
      "stateMutability": "nonpayable",
      "type": "function"
    },
    {
      "inputs": [
        {
          "internalType": "uint256",
          "name": "_itemId",
          "type": "uint256"
        }
      ],
      "name": "getNumberOfPricesForItem",
      "outputs": [
        {
          "internalType": "uint256",
          "name": "",
          "type": "uint256"
        }
      ],
      "stateMutability": "view",
      "type": "function"
    },
    {
      "inputs": [
        {
          "internalType": "uint256",
          "name": "_itemId",
          "type": "uint256"
        },
        {
          "internalType": "uint256",
          "name": "_index",
          "type": "uint256"
        }
      ],
      "name": "getPriceForItemAtIndex",
      "outputs": [
        {
          "internalType": "uint256",
          "name": "",
          "type": "uint256"
        },
        {
          "internalType": "uint256",
          "name": "",
          "type": "uint256"
        },
        {
          "internalType": "address",
          "name": "",
          "type": "address"
        }
      ],
      "stateMutability": "view",
      "type": "function"
    },
    {
      "inputs": [
        {
          "internalType": "uint256",
          "name": "_itemId",
          "type": "uint256"
        }
      ],
      "name": "getItemInfo",
      "outputs": [
        {
          "internalType": "uint256",
          "name": "",
          "type": "uint256"
        },
        {
          "internalType": "uint256",
          "name": "",
          "type": "uint256"
        },
        {
          "internalType": "string",
          "name": "",
          "type": "string"
        },
        {
          "internalType": "uint256",
          "name": "",
          "type": "uint256"
        },
        {
          "internalType": "uint256",
          "name": "",
          "type": "uint256"
        }
      ],
      "stateMutability": "view",
      "type": "function"
    }
  ],
  "bytecode": "0x60806040523480156200001157600080fd5b50604051620028e7380380620028e7833981810160405260608110156200003757600080fd5b8101908080519060200190929190805160405193929190846401000000008211156200006257600080fd5b838201915060208201858111156200007957600080fd5b82518660018202830111640100000000821117156200009757600080fd5b8083526020830192505050908051906020019080838360005b83811015620000cd578082015181840152602081019050620000b0565b50505050905090810190601f168015620000fb5780820380516001836020036101000a031916815260200191505b50604052602001805190602001909291905050508260016000018190555081600180019080519060200190620001339291906200031a565b50620001496000801b826200018460201b60201c565b6200017b7fa49807205ce4d355092ef5a8a18f56e8913cf4a201fbe287825b095693c21775826200018460201b60201c565b505050620003c0565b6200019682826200019a60201b60201c565b5050565b620001c8816000808581526020019081526020016000206000016200023d60201b620015dd1790919060201c565b156200023957620001de6200027560201b60201c565b73ffffffffffffffffffffffffffffffffffffffff168173ffffffffffffffffffffffffffffffffffffffff16837f2f8788117e7eff1d82e926ec794901d17c78024a50270940304540a733656f0d60405160405180910390a45b5050565b60006200026d836000018373ffffffffffffffffffffffffffffffffffffffff1660001b6200027d60201b60201c565b905092915050565b600033905090565b6000620002918383620002f760201b60201c565b620002ec578260000182908060018154018082558091505060019003906000526020600020016000909190919091505582600001805490508360010160008481526020019081526020016000208190555060019050620002f1565b600090505b92915050565b600080836001016000848152602001908152602001600020541415905092915050565b828054600181600116156101000203166002900490600052602060002090601f016020900481019282601f106200035d57805160ff19168380011785556200038e565b828001600101855582156200038e579182015b828111156200038d57825182559160200191906001019062000370565b5b5090506200039d9190620003a1565b5090565b5b80821115620003bc576000816000905550600101620003a2565b5090565b61251780620003d06000396000f3fe60806040523480156200001157600080fd5b50600436106200013c5760003560e01c80638d0c27c911620000bd578063bfb231d2116200007b578063bfb231d2146200068a578063ca15c87314620006e5578063d054fa1d146200072a578063d547741f146200079d578063de7fe3e714620007ee576200013c565b80638d0c27c914620004645780639010d07c146200055957806391d1485414620005be578063a217fddf1462000625578063a66a59d81462000645576200013c565b806336568abe116200010b57806336568abe146200029b5780633cd4997414620002ec5780637343bfc6146200034757806375b238fc14620003dd5780638a19b4d214620003fd576200013c565b8063248a9ca3146200014157806324d7806c1462000186578063268959e514620001e35780632f2ff15d146200024a575b600080fd5b62000170600480360360208110156200015957600080fd5b8101908080359060200190929190505050620008b7565b6040518082815260200191505060405180910390f35b620001cb600480360360208110156200019e57600080fd5b81019080803573ffffffffffffffffffffffffffffffffffffffff169060200190929190505050620008d6565b60405180821515815260200191505060405180910390f35b6200024860048036036040811015620001fb57600080fd5b81019080803573ffffffffffffffffffffffffffffffffffffffff169060200190929190803573ffffffffffffffffffffffffffffffffffffffff1690602001909291905050506200090b565b005b62000299600480360360408110156200026257600080fd5b8101908080359060200190929190803573ffffffffffffffffffffffffffffffffffffffff169060200190929190505050620009c0565b005b620002ea60048036036040811015620002b357600080fd5b8101908080359060200190929190803573ffffffffffffffffffffffffffffffffffffffff16906020019092919050505062000a51565b005b62000345600480360360608110156200030457600080fd5b81019080803573ffffffffffffffffffffffffffffffffffffffff169060200190929190803590602001909291908035906020019092919050505062000af0565b005b6200035162000c98565b6040518084815260200180602001838152602001828103825284818151815260200191508051906020019080838360005b838110156200039f57808201518184015260208101905062000382565b50505050905090810190601f168015620003cd5780820380516001836020036101000a031916815260200191505b5094505050505060405180910390f35b620003e762000d4c565b6040518082815260200191505060405180910390f35b62000462600480360360408110156200041557600080fd5b81019080803573ffffffffffffffffffffffffffffffffffffffff169060200190929190803573ffffffffffffffffffffffffffffffffffffffff16906020019092919050505062000d70565b005b62000557600480360360808110156200047c57600080fd5b81019080803573ffffffffffffffffffffffffffffffffffffffff1690602001909291908035906020019092919080359060200190640100000000811115620004c457600080fd5b820183602082011115620004d757600080fd5b80359060200191846001830284011164010000000083111715620004fa57600080fd5b91908080601f016020809104026020016040519081016040528093929190818152602001838380828437600081840152601f19601f8201169050808301925050505050505091929192908035906020019092919050505062000e25565b005b62000592600480360360408110156200057157600080fd5b81019080803590602001909291908035906020019092919050505062000ffb565b604051808273ffffffffffffffffffffffffffffffffffffffff16815260200191505060405180910390f35b6200060d60048036036040811015620005d657600080fd5b8101908080359060200190929190803573ffffffffffffffffffffffffffffffffffffffff1690602001909291905050506200102e565b60405180821515815260200191505060405180910390f35b6200062f62001061565b6040518082815260200191505060405180910390f35b62000674600480360360208110156200065d57600080fd5b810190808035906020019092919050505062001068565b6040518082815260200191505060405180910390f35b620006b960048036036020811015620006a257600080fd5b810190808035906020019092919050505062001188565b604051808273ffffffffffffffffffffffffffffffffffffffff16815260200191505060405180910390f35b6200071460048036036020811015620006fd57600080fd5b8101908080359060200190929190505050620011bb565b6040518082815260200191505060405180910390f35b62000763600480360360408110156200074257600080fd5b810190808035906020019092919080359060200190929190505050620011e3565b604051808481526020018381526020018273ffffffffffffffffffffffffffffffffffffffff168152602001935050505060405180910390f35b620007ec60048036036040811015620007b557600080fd5b8101908080359060200190929190803573ffffffffffffffffffffffffffffffffffffffff1690602001909291905050506200132b565b005b6200081d600480360360208110156200080657600080fd5b8101908080359060200190929190505050620013bc565b6040518086815260200185815260200180602001848152602001838152602001828103825285818151815260200191508051906020019080838360005b83811015620008775780820151818401526020810190506200085a565b50505050905090810190601f168015620008a55780820380516001836020036101000a031916815260200191505b50965050505050505060405180910390f35b6000806000838152602001908152602001600020600201549050919050565b6000620009047fa49807205ce4d355092ef5a8a18f56e8913cf4a201fbe287825b095693c21775836200102e565b9050919050565b81620009387fa49807205ce4d355092ef5a8a18f56e8913cf4a201fbe287825b095693c21775826200102e565b6200098f576040517f08c379a0000000000000000000000000000000000000000000000000000000008152600401808060200182810382526021815260200180620024616021913960400191505060405180910390fd5b620009bb7fa49807205ce4d355092ef5a8a18f56e8913cf4a201fbe287825b095693c21775836200132b565b505050565b620009ea60008084815260200190815260200160002060020154620009e46200160f565b6200102e565b62000a41576040517f08c379a000000000000000000000000000000000000000000000000000000000815260040180806020018281038252602f81526020018062002402602f913960400191505060405180910390fd5b62000a4d828262001617565b5050565b62000a5b6200160f565b73ffffffffffffffffffffffffffffffffffffffff168173ffffffffffffffffffffffffffffffffffffffff161462000ae0576040517f08c379a000000000000000000000000000000000000000000000000000000000815260040180806020018281038252602f815260200180620024b3602f913960400191505060405180910390fd5b62000aec8282620016af565b5050565b8262000b1d7fa49807205ce4d355092ef5a8a18f56e8913cf4a201fbe287825b095693c21775826200102e565b62000b74576040517f08c379a0000000000000000000000000000000000000000000000000000000008152600401808060200182810382526021815260200180620024616021913960400191505060405180910390fd5b60016002015483111562000bd4576040517f08c379a0000000000000000000000000000000000000000000000000000000008152600401808060200182810382526031815260200180620024826031913960400191505060405180910390fd5b6004600084815260200190815260200160002060009054906101000a900473ffffffffffffffffffffffffffffffffffffffff1673ffffffffffffffffffffffffffffffffffffffff1663e9ffaadb83866040518363ffffffff1660e01b8152600401808381526020018273ffffffffffffffffffffffffffffffffffffffff16815260200192505050600060405180830381600087803b15801562000c7957600080fd5b505af115801562000c8e573d6000803e3d6000fd5b5050505050505050565b6001806000015490806001018054600181600116156101000203166002900480601f01602080910402602001604051908101604052809291908181526020018280546001816001161561010002031660029004801562000d3c5780601f1062000d105761010080835404028352916020019162000d3c565b820191906000526020600020905b81548152906001019060200180831162000d1e57829003601f168201915b5050505050908060020154905083565b7fa49807205ce4d355092ef5a8a18f56e8913cf4a201fbe287825b095693c2177581565b8162000d9d7fa49807205ce4d355092ef5a8a18f56e8913cf4a201fbe287825b095693c21775826200102e565b62000df4576040517f08c379a0000000000000000000000000000000000000000000000000000000008152600401808060200182810382526021815260200180620024616021913960400191505060405180910390fd5b62000e207fa49807205ce4d355092ef5a8a18f56e8913cf4a201fbe287825b095693c217758362001747565b505050565b8362000e527fa49807205ce4d355092ef5a8a18f56e8913cf4a201fbe287825b095693c21775826200102e565b62000ea9576040517f08c379a0000000000000000000000000000000000000000000000000000000008152600401808060200182810382526021815260200180620024616021913960400191505060405180910390fd5b60003060016002015486868660405162000ec39062001a09565b808673ffffffffffffffffffffffffffffffffffffffff16815260200185815260200184815260200180602001838152602001828103825284818151815260200191508051906020019080838360005b8381101562000f3057808201518184015260208101905062000f13565b50505050905090810190601f16801562000f5e5780820380516001836020036101000a031916815260200191505b509650505050505050604051809103906000f08015801562000f84573d6000803e3d6000fd5b5090508060046000600160020154815260200190815260200160002060006101000a81548173ffffffffffffffffffffffffffffffffffffffff021916908373ffffffffffffffffffffffffffffffffffffffff160217905550600160020160008154809291906001019190505550505050505050565b600062001026826000808681526020019081526020016000206000016200175790919063ffffffff16565b905092915050565b600062001059826000808681526020019081526020016000206000016200177390919063ffffffff16565b905092915050565b6000801b81565b6000600160020154821115620010ca576040517f08c379a0000000000000000000000000000000000000000000000000000000008152600401808060200182810382526031815260200180620024826031913960400191505060405180910390fd5b6004600083815260200190815260200160002060009054906101000a900473ffffffffffffffffffffffffffffffffffffffff1673ffffffffffffffffffffffffffffffffffffffff16637b12291a6040518163ffffffff1660e01b815260040160206040518083038186803b1580156200114457600080fd5b505afa15801562001159573d6000803e3d6000fd5b505050506040513d60208110156200117057600080fd5b81019080805190602001909291905050509050919050565b60046020528060005260406000206000915054906101000a900473ffffffffffffffffffffffffffffffffffffffff1681565b6000620011dc600080848152602001908152602001600020600001620017a5565b9050919050565b600080600060016002015485111562001248576040517f08c379a0000000000000000000000000000000000000000000000000000000008152600401808060200182810382526031815260200180620024826031913960400191505060405180910390fd5b6004600086815260200190815260200160002060009054906101000a900473ffffffffffffffffffffffffffffffffffffffff1673ffffffffffffffffffffffffffffffffffffffff1663c8104e01856040518263ffffffff1660e01b81526004018082815260200191505060606040518083038186803b158015620012cd57600080fd5b505afa158015620012e2573d6000803e3d6000fd5b505050506040513d6060811015620012f957600080fd5b810190808051906020019092919080519060200190929190805190602001909291905050509250925092509250925092565b62001355600080848152602001908152602001600020600201546200134f6200160f565b6200102e565b620013ac576040517f08c379a0000000000000000000000000000000000000000000000000000000008152600401808060200182810382526030815260200180620024316030913960400191505060405180910390fd5b620013b88282620016af565b5050565b600080606060008060016002015486111562001424576040517f08c379a0000000000000000000000000000000000000000000000000000000008152600401808060200182810382526031815260200180620024826031913960400191505060405180910390fd5b6004600087815260200190815260200160002060009054906101000a900473ffffffffffffffffffffffffffffffffffffffff1673ffffffffffffffffffffffffffffffffffffffff1663a706bf146040518163ffffffff1660e01b815260040160006040518083038186803b1580156200149e57600080fd5b505afa158015620014b3573d6000803e3d6000fd5b505050506040513d6000823e3d601f19601f8201168201806040525060a0811015620014de57600080fd5b810190808051906020019092919080519060200190929190805160405193929190846401000000008211156200151357600080fd5b838201915060208201858111156200152a57600080fd5b82518660018202830111640100000000821117156200154857600080fd5b8083526020830192505050908051906020019080838360005b838110156200157e57808201518184015260208101905062001561565b50505050905090810190601f168015620015ac5780820380516001836020036101000a031916815260200191505b5060405260200180519060200190929190805190602001909291905050509450945094509450945091939590929450565b600062001607836000018373ffffffffffffffffffffffffffffffffffffffff1660001b620017bc565b905092915050565b600033905090565b6200164081600080858152602001908152602001600020600001620015dd90919063ffffffff16565b15620016ab57620016506200160f565b73ffffffffffffffffffffffffffffffffffffffff168173ffffffffffffffffffffffffffffffffffffffff16837f2f8788117e7eff1d82e926ec794901d17c78024a50270940304540a733656f0d60405160405180910390a45b5050565b620016d8816000808581526020019081526020016000206000016200183090919063ffffffff16565b156200174357620016e86200160f565b73ffffffffffffffffffffffffffffffffffffffff168173ffffffffffffffffffffffffffffffffffffffff16837ff6391f5c32d9c69d2a47ea670b442974b53935d1edc7fd64eb21e047a839171b60405160405180910390a45b5050565b62001753828262001617565b5050565b600062001768836000018362001862565b60001c905092915050565b60006200179d836000018373ffffffffffffffffffffffffffffffffffffffff1660001b620018e8565b905092915050565b6000620017b5826000016200190b565b9050919050565b6000620017ca8383620018e8565b620018255782600001829080600181540180825580915050600190039060005260206000200160009091909190915055826000018054905083600101600084815260200190815260200160002081905550600190506200182a565b600090505b92915050565b60006200185a836000018373ffffffffffffffffffffffffffffffffffffffff1660001b6200191c565b905092915050565b600081836000018054905011620018c5576040517f08c379a0000000000000000000000000000000000000000000000000000000008152600401808060200182810382526022815260200180620023e06022913960400191505060405180910390fd5b826000018281548110620018d557fe5b9060005260206000200154905092915050565b600080836001016000848152602001908152602001600020541415905092915050565b600081600001805490509050919050565b60008083600101600084815260200190815260200160002054905060008114620019fd57600060018203905060006001866000018054905003905060008660000182815481106200196957fe5b90600052602060002001549050808760000184815481106200198757fe5b9060005260206000200181905550600183018760010160008381526020019081526020016000208190555086600001805480620019c057fe5b6001900381819060005260206000200160009055905586600101600087815260200190815260200160002060009055600194505050505062001a03565b60009150505b92915050565b6109c88062001a188339019056fe608060405234801561001057600080fd5b506040516109c83803806109c8833981810160405260a081101561003357600080fd5b810190808051906020019092919080519060200190929190805190602001909291908051604051939291908464010000000082111561007157600080fd5b8382019150602082018581111561008757600080fd5b82518660018202830111640100000000821117156100a457600080fd5b8083526020830192505050908051906020019080838360005b838110156100d85780820151818401526020810190506100bd565b50505050905090810190601f1680156101055780820380516001836020036101000a031916815260200191505b506040526020018051906020019092919050505084600660006101000a81548173ffffffffffffffffffffffffffffffffffffffff021916908373ffffffffffffffffffffffffffffffffffffffff16021790555083600080018190555082600060010181905550816000600201908051906020019061018692919061025b565b5061019781336101a160201b60201c565b50505050506102f8565b816005600080600401548152602001908152602001600020600001819055504260056000806004015481526020019081526020016000206001018190555080600560008060040154815260200190815260200160002060020160006101000a81548173ffffffffffffffffffffffffffffffffffffffff021916908373ffffffffffffffffffffffffffffffffffffffff160217905550816000600301819055506000600401600081548092919060010191905055505050565b828054600181600116156101000203166002900490600052602060002090601f016020900481019282601f1061029c57805160ff19168380011785556102ca565b828001600101855582156102ca579182015b828111156102c95782518255916020019190600101906102ae565b5b5090506102d791906102db565b5090565b5b808211156102f45760008160009055506001016102dc565b5090565b6106c1806103076000396000f3fe608060405234801561001057600080fd5b50600436106100575760003560e01c80637b12291a1461005c578063a706bf141461007a578063bc31c1c114610119578063c8104e011461017f578063e9ffaadb146101e5575b600080fd5b610064610233565b6040518082815260200191505060405180910390f35b61008261023f565b6040518086815260200185815260200180602001848152602001838152602001828103825285818151815260200191508051906020019080838360005b838110156100da5780820151818401526020810190506100bf565b50505050905090810190601f1680156101075780820380516001836020036101000a031916815260200191505b50965050505050505060405180910390f35b6101456004803603602081101561012f57600080fd5b81019080803590602001909291905050506102fb565b604051808481526020018381526020018273ffffffffffffffffffffffffffffffffffffffff168152602001935050505060405180910390f35b6101ab6004803603602081101561019557600080fd5b8101908080359060200190929190505050610345565b604051808481526020018381526020018273ffffffffffffffffffffffffffffffffffffffff168152602001935050505060405180910390f35b610231600480360360408110156101fb57600080fd5b8101908080359060200190929190803573ffffffffffffffffffffffffffffffffffffffff169060200190929190505050610418565b005b60008060040154905090565b6000806000015490806001015490806002018054600181600116156101000203166002900480601f0160208091040260200160405190810160405280929190818152602001828054600181600116156101000203166002900480156102e55780601f106102ba576101008083540402835291602001916102e5565b820191906000526020600020905b8154815290600101906020018083116102c857829003601f168201915b5050505050908060030154908060040154905085565b60056020528060005260406000206000915090508060000154908060010154908060020160009054906101000a900473ffffffffffffffffffffffffffffffffffffffff16905083565b6000806000806004015484106103a6576040517f08c379a000000000000000000000000000000000000000000000000000000000815260040180806020018281038252602d8152602001806105fc602d913960400191505060405180910390fd5b600560008581526020019081526020016000206000015460056000868152602001908152602001600020600101546005600087815260200190815260200160002060020160009054906101000a900473ffffffffffffffffffffffffffffffffffffffff169250925092509193909250565b80600660009054906101000a900473ffffffffffffffffffffffffffffffffffffffff1673ffffffffffffffffffffffffffffffffffffffff166324d7806c826040518263ffffffff1660e01b8152600401808273ffffffffffffffffffffffffffffffffffffffff16815260200191505060206040518083038186803b1580156104a257600080fd5b505afa1580156104b6573d6000803e3d6000fd5b505050506040513d60208110156104cc57600080fd5b8101908080519060200190929190505050610532576040517f08c379a00000000000000000000000000000000000000000000000000000000081526004018080602001828103825260638152602001806106296063913960800191505060405180910390fd5b61053c8383610541565b505050565b816005600080600401548152602001908152602001600020600001819055504260056000806004015481526020019081526020016000206001018190555080600560008060040154815260200190815260200160002060020160006101000a81548173ffffffffffffffffffffffffffffffffffffffff021916908373ffffffffffffffffffffffffffffffffffffffff16021790555081600060030181905550600060040160008154809291906001019190505550505056fe5468657265206973206e6f20707269636520656e74727920776974682073706563696669656420696e6465782e596f7520617265206e6f7420616c6c6f77656420746f2075706461746520746865207072696365206f6620746865206974656d21204f6e6c792061646d696e73206f66207468652073746f72652063616e207570646174652074686520707269636521a2646970667358221220907ab09eecf5b2070fd017186f07b6afc0727b37f3e7eae6dec2d906d741865c64736f6c634300060c0033456e756d657261626c655365743a20696e646578206f7574206f6620626f756e6473416363657373436f6e74726f6c3a2073656e646572206d75737420626520616e2061646d696e20746f206772616e74416363657373436f6e74726f6c3a2073656e646572206d75737420626520616e2061646d696e20746f207265766f6b6543616c6c6572206973206e6f7420616e2061646d696e206f6620612073746f72654974656d20776974682070726f766964656420696420646f65736e277420657869737420696e20746869732073746f7265416363657373436f6e74726f6c3a2063616e206f6e6c792072656e6f756e636520726f6c657320666f722073656c66a264697066735822122080cb25572f0f41b9063372b9dd0b1f67165e58aa68b43356df70c50c55606f0564736f6c634300060c0033",
  "immutableReferences": {},
  "source": "// SPDX-License-Identifier: GPL-3.0\r\n\r\npragma solidity >=0.6.0 <0.8.0;\r\n\r\nimport \"@openzeppelin/contracts/access/AccessControl.sol\";\r\nimport \"./Item.sol\";\r\n\r\n/**\r\n * @title Store\r\n * @dev Store contract for storing items and their prices.\r\n */\r\ncontract Store is AccessControl {\r\n    \r\n    // roles for AccessControl contract\r\n    bytes32 public constant ADMIN_ROLE = keccak256(\"ADMIN_ROLE\");\r\n    \r\n    struct StoreInfo {\r\n        uint256 storeId;\r\n        string name;\r\n        uint256 numOfItems;\r\n    }\r\n\r\n    StoreInfo public storeInfo;\r\n    mapping(uint256 => Item) public items;\r\n    \r\n    /**\r\n     * @dev Modifier that allows only admins of a store to manage items\r\n     * @param _address address of a user that is trying to update the price.\r\n     */\r\n    modifier onlyStoreAdmin(address _address){\r\n        require(hasRole(ADMIN_ROLE, _address), \"Caller is not an admin of a store\");\r\n        _;\r\n    }\r\n    \r\n    /**\r\n     * @dev Creates new store contract for managing items and prices in a store.\r\n     * @param _admin address taht will be the admin of the store\r\n     * @param _name name of the store\r\n     */\r\n    constructor(uint256 _storeId, string memory _name, address _admin) public {\r\n        storeInfo.storeId = _storeId;\r\n        storeInfo.name = _name;\r\n        _setupRole(DEFAULT_ADMIN_ROLE, _admin);\r\n        _setupRole(ADMIN_ROLE, _admin);\r\n    }\r\n    \r\n    /**\r\n     * @dev Grants admin role to specified address\r\n     * @param _sender address which invoked this function (should be and admin address) \r\n     * @param _address which will be granted an admin role\r\n     */\r\n    function addAdmin(address _sender, address _address) public onlyStoreAdmin(_sender) {\r\n        _setupRole(ADMIN_ROLE, _address);\r\n    }\r\n    \r\n    /**\r\n     * @dev Revokes admin role from specified address\r\n     * @param _sender address which invoked this function (should be and admin address) \r\n     * @param _address which will be revoked an admin role\r\n     */\r\n    function removeAdmin(address _sender, address _address) public onlyStoreAdmin(_sender) {\r\n        revokeRole(ADMIN_ROLE, _address);\r\n    }\r\n    \r\n    /**\r\n     * @dev Checks if the specified role has admin role\r\n     * @param _address to verify\r\n     * @return bool (if the specified address has admin rights)\r\n     */\r\n    function isAdmin(address _address) public view returns(bool) {\r\n        return hasRole(ADMIN_ROLE, _address);\r\n    }\r\n    \r\n    /**\r\n     * @dev Creates new item under this store\r\n     * @param _address address of the user who is creating new item\r\n     * @param _isoCurrency currency identifier according to ISO-4127\r\n     * @param _name of the item\r\n     * @param _price initial price of the item\r\n     */\r\n    function createNewItem(address _address, uint256 _isoCurrency, string memory _name, uint _price) public onlyStoreAdmin(_address) {\r\n        Item item = new Item(this, storeInfo.numOfItems, _isoCurrency, _name, _price);\r\n        items[storeInfo.numOfItems] = item;\r\n        storeInfo.numOfItems++;\r\n    }\r\n    \r\n    /**\r\n     * @dev Updates the price for the selected item (creates new Price record)\r\n     * @param _address address of the user who is creating new item\r\n     * @param _itemId identifier of the item\r\n     * @param _amount new price\r\n     */\r\n    function updateItemPrice(address _address, uint256 _itemId, uint256 _amount) public onlyStoreAdmin(_address) {\r\n        require(_itemId <= storeInfo.numOfItems, \"Item with provided id doesn't exist in this store\");\r\n        items[_itemId].updatePrice(_amount, _address);\r\n    }\r\n    \r\n    /**\r\n     * @dev Gets number of Price records for selected item.\r\n     * @param _itemId identifier of the item\r\n     * @return number of times the price has been updated\r\n     */\r\n    function getNumberOfPricesForItem(uint256 _itemId) public view returns(uint256) {\r\n        require(_itemId <= storeInfo.numOfItems, \"Item with provided id doesn't exist in this store\");\r\n        return items[_itemId].numberOfPriceChanges();\r\n    }\r\n    \r\n     /**\r\n     * @dev Gets price record on selected index for specified item \r\n     * @param _itemId identifier of the item\r\n     * @param _index price record index\r\n     * @return tuple(amount, unixTimestamp, updatedUser)\r\n     */\r\n    function getPriceForItemAtIndex(uint256 _itemId, uint256 _index) public view returns(uint256, uint256, address){\r\n        require(_itemId <= storeInfo.numOfItems, \"Item with provided id doesn't exist in this store\");\r\n        return items[_itemId].getPriceAtIndex(_index);\r\n    }\r\n    \r\n    /**\r\n     * @dev Returns tuple containing basic information for selected items\r\n     * @param _itemId item identifier \r\n     * @return tuple(itemId, isoCurrency, name, lastPrice, numberOfPriceChanges)\r\n     */\r\n    function getItemInfo(uint256 _itemId) public view returns(uint256, uint256, string memory, uint256, uint256) {\r\n        require(_itemId <= storeInfo.numOfItems, \"Item with provided id doesn't exist in this store\");\r\n        return items[_itemId].itemInfo();\r\n    }\r\n    \r\n}",
  "sourcePath": "C:\\Users\\DJKrivi\\Desktop\\Master\\Master teza\\Implementacija\\contracts\\Store.sol",
  "compiler": {
    "name": "solc",
    "version": "0.6.12+commit.27d51765.Emscripten.clang"
  },
  "schemaVersion": "3.2.3",
  "updatedAt": "2021-02-18T15:22:23.396Z",
  "devdoc": {
    "details": "Store contract for storing items and their prices.",
    "kind": "dev",
    "methods": {
      "addAdmin(address,address)": {
        "details": "Grants admin role to specified address",
        "params": {
          "_address": "which will be granted an admin role",
          "_sender": "address which invoked this function (should be and admin address) "
        }
      },
      "constructor": {
        "details": "Creates new store contract for managing items and prices in a store.",
        "params": {
          "_admin": "address taht will be the admin of the store",
          "_name": "name of the store"
        }
      },
      "createNewItem(address,uint256,string,uint256)": {
        "details": "Creates new item under this store",
        "params": {
          "_address": "address of the user who is creating new item",
          "_isoCurrency": "currency identifier according to ISO-4127",
          "_name": "of the item",
          "_price": "initial price of the item"
        }
      },
      "getItemInfo(uint256)": {
        "details": "Returns tuple containing basic information for selected items",
        "params": {
          "_itemId": "item identifier "
        },
        "returns": {
          "_0": "tuple(itemId, isoCurrency, name, lastPrice, numberOfPriceChanges)"
        }
      },
      "getNumberOfPricesForItem(uint256)": {
        "details": "Gets number of Price records for selected item.",
        "params": {
          "_itemId": "identifier of the item"
        },
        "returns": {
          "_0": "number of times the price has been updated"
        }
      },
      "getPriceForItemAtIndex(uint256,uint256)": {
        "details": "Gets price record on selected index for specified item ",
        "params": {
          "_index": "price record index",
          "_itemId": "identifier of the item"
        },
        "returns": {
          "_0": "tuple(amount, unixTimestamp, updatedUser)"
        }
      },
      "getRoleAdmin(bytes32)": {
        "details": "Returns the admin role that controls `role`. See {grantRole} and {revokeRole}. To change a role's admin, use {_setRoleAdmin}."
      },
      "getRoleMember(bytes32,uint256)": {
        "details": "Returns one of the accounts that have `role`. `index` must be a value between 0 and {getRoleMemberCount}, non-inclusive. Role bearers are not sorted in any particular way, and their ordering may change at any point. WARNING: When using {getRoleMember} and {getRoleMemberCount}, make sure you perform all queries on the same block. See the following https://forum.openzeppelin.com/t/iterating-over-elements-on-enumerableset-in-openzeppelin-contracts/2296[forum post] for more information."
      },
      "getRoleMemberCount(bytes32)": {
        "details": "Returns the number of accounts that have `role`. Can be used together with {getRoleMember} to enumerate all bearers of a role."
      },
      "grantRole(bytes32,address)": {
        "details": "Grants `role` to `account`. If `account` had not been already granted `role`, emits a {RoleGranted} event. Requirements: - the caller must have ``role``'s admin role."
      },
      "hasRole(bytes32,address)": {
        "details": "Returns `true` if `account` has been granted `role`."
      },
      "isAdmin(address)": {
        "details": "Checks if the specified role has admin role",
        "params": {
          "_address": "to verify"
        },
        "returns": {
          "_0": "bool (if the specified address has admin rights)"
        }
      },
      "removeAdmin(address,address)": {
        "details": "Revokes admin role from specified address",
        "params": {
          "_address": "which will be revoked an admin role",
          "_sender": "address which invoked this function (should be and admin address) "
        }
      },
      "renounceRole(bytes32,address)": {
        "details": "Revokes `role` from the calling account. Roles are often managed via {grantRole} and {revokeRole}: this function's purpose is to provide a mechanism for accounts to lose their privileges if they are compromised (such as when a trusted device is misplaced). If the calling account had been granted `role`, emits a {RoleRevoked} event. Requirements: - the caller must be `account`."
      },
      "revokeRole(bytes32,address)": {
        "details": "Revokes `role` from `account`. If `account` had been granted `role`, emits a {RoleRevoked} event. Requirements: - the caller must have ``role``'s admin role."
      },
      "updateItemPrice(address,uint256,uint256)": {
        "details": "Updates the price for the selected item (creates new Price record)",
        "params": {
          "_address": "address of the user who is creating new item",
          "_amount": "new price",
          "_itemId": "identifier of the item"
        }
      }
    },
    "title": "Store",
    "version": 1
  },
  "userdoc": {
    "kind": "user",
    "methods": {},
    "version": 1
  }
}